:020000000C945E
:1000020063000C9400000C9400000C9400000C940B
:1000120000000C9400000C9400000C9400000C945E
:1000220000000C9400000C9400000C9400000C944E
:1000320000000C9400000C9400000C9400000C943E
:1000420000000C9400000C9400000C9400000C942E
:1000520000000C9400000C9400000C9400000C941E
:1000620000000C9400000C9400000C9400000C940E
:1000720000000C9400000C9400000C9400000C94FE
:1000820000000C9400000C9400001027E8036400A8
:100092000A00010000100001100001005350454504
:1000A200443A25303364000080C001002D4E414E99
:1000B20000494E46000002001005AA000100140586
:1000C200AC000000F894EE27ECBBF1E0F5BFE5BF11
:1000D200E0936C008DE0A2E0BB27ED938A95E9F7EF
:1000E20080E090E1A0E0B1E0ED930197E9F7E8EB61
:1000F200F0E085919591009761F0A591B5910590F9
:100102001590BF01F00105900D920197E1F7FB01F7
:10011200F0CF8BBFEFEFEDBFE0E1EEBFC0E0D5E087
:100122000C94B700E1B7F0E0AFEFB0E0AE1BBF0B4D
:100132002D01E0E0EA93A0E078D0E0E0F5E0FA9368
:10014200EA93EEE9F0E0FA93EA93F2010E94910356
:100152000E949E0384E00E94F8022896A0E0B5E087
:1001620092D0A5E0B0E00E947F030895E0E1E7BBF2
:10017200EEE0E8BBE0E8E1BBE0E0E0BFE4E7E3BFDC
:10018200E0E0E2BFEFEFE1BFA0E18ED0A4E1B0E09A
:100192000E947F03B19909C0E1B7E03011F4E0E0B9
:1001A20002C0E1B7E550E1BF0CC0E1B7EF3F11F487
:1001B200EFEF02C0E1B7EB5FE1BFA5E0B0E00E9464
:1001C2007F03B0DFE7CFFFCFAA93E881E07111F0A0
:1001D200DB9A01C0DB98E881E07211F0DC9A01C081
:1001E200DC98E881E07411F0DD9A01C0DD98E881C5
:1001F200E07811F0DE9A01C0DE988DE08A95F1F781
:10020200DA9A8DE08A95F1F7DA988DE08A95F1F71E
:1002120078C0AA93A881D8DFE881E295E883A88113
:10022200D3DF85E88A95F1F76CC0AA93E881F0E004
:10023200E05FFA4FE081A981AE0FEBDF7980688041
:1002420022960895A2E00E944503ACE0E2DFA1E01D
:100252000E944503E0E06E2E7E2E0895AA93A881A7
:10026200AA3011F0791448F0E0E0EA936394A62DE5
:10027200DCDFA881AA3009F444C07394D89AA8811B
:10028200C8DFD8983EC0BA93AA931A93A981BA81BB
:10029200ED91A983BA831E2FE03019F0A12FDEDF82
:1002A200F5CF188123960895AA93D39AD49AD59A12
:1002B200D69AD29AD09AD19ADA98D898D998988020
:1002C200E881E058E0931205E881E054E0931305D9
:1002D200A4E1B0E00E947F030E944B030E944B0303
:1002E2000E944B03A0E270DF88EC90E00197F1F7E7
:1002F200A8E28FDFA4E08DDFA5E88BDFA6E089DF2F
:10030200A1DF21960895BA93AA931A930A93AA8118
:10031200BB8112960E949603309759F1AA81BB8144
:1003220014960E9496038F01309761F00230E0E04C
:100332001E0798F0F80131978F01AA81BB811496AC
:10034200ED93FC93AA81BB811296ED91FD913196BA
:10035200FE93EE933197AC81A083AA81BB810E9468
:100362009603FF232AF0ED91FD913196FE93EE93D1
:1003720006C0AA81BB81EFEFFFEFED93FC931981D9
:10038200088125960895BA93AA9326970E94A303FB
:1003920010E0AC85BD85E0E0F0E0ED93FC93EA89E6
:1003A200FB893196EA8BFB8B3197E4912E2FE0305B
:1003B20009F415C1E12FE03039F4253211F411E0CE
:1003C20002C00E9453030AC1E130A9F4253219F494
:1003D2000E94530302C112E040E000E02D3211F40A
:1003E20001E0FCC02B3211F44BE2F8C0203211F4D0
:1003F20040E2F4C002C0E23039F450E013E02033AE
:1004020011F40068EBC003C0E33009F0E7C0203309
:1004120010F02A3308F007C0AAE05A9F502DE22FAD
:10042200E0535E0FDBC0E22FE33649F40E945A0329
:10043200E889F989A481AA930E946003CEC0E337B8
:1004420041F40E945A030E9466030E942C031E2F4D
:100452000AC0E03761F40E945A030E9466030E94B8
:1004620038031E2F086002600F7730E034C0E43694
:1004720011F0E93611F4046002C0E53731F4ECE81A
:10048200F0E0EE83FF8315E00CC0E83511F408605C
:1004920003C0E83709F0A1C0E6E9F0E0EE83FF838C
:1004A20014E002FF14C00E945A030E947003AB853D
:1004B200AA233AF4EA85FB850E948D03EA87FB872B
:1004C2004DE2403011F01F5F01C00B7F04C00E945B
:1004D2005A030E94700300FD11C0151778F407FF3C
:1004E20008C002FF04C00B7F242F115001C020E37B
:1004F20001C020E20E9453035150EFCF312F01FF80
:1005020017C03030A1F003FF06C0EE81FF812591B4
:10051200EE83FF8305C0AE81BF812D91AE83BF8381
:100522000E945303503009F051503150EACF4BC072
:1005320020E3EE81FF810E949A03E887F987EE812A
:10054200FF813296EE83FF83E885F985AA85BB8514
:10055200AE17BF0750F02F5FA885B985EA85FB85E6
:10056200EA1BFB0BEA87FB87EFCF2A3328F003FF56
:1005720002C0295F01C0295D04FD1AC0213320F4A5
:10058200A885B985119709F409C0531710F000FF27
:1005920001C013C020E207FF0BC020E3006102FF8D
:1005A20007C00B7F4A930E946003503009F05150FC
:1005B2000E945303503009F051503150A885B9853B
:1005C200129708F0B5CF00FF08C0503031F05150FB
:1005D200E0E2EA930E946003F8CF10E0E0CEAC853F
:1005E200BD850E9496030E94AA0364960895FF9215
:1005F200F82E26970E94A5030E947803309719F4DB
:10060200EFEFFFEF23C0DE0116960E9489038D01F2
:100612000E947803EE83FF83E0E0E887E987DE014A
:100622001A960E9489030E949603FA93EA931A93F8
:100632000A93E4E8F1E0FA93EA93DE011A96A3DE64
:100642009F01AE81BF81E0E0EC93F9010E94AC030F
:100652002A96FF900895BA93AA93A991B991EE2789
:10066200FF276D91662311F03196FBCF0895BA935F
:10067200AA93AA27BB27E991F9910590002011F0CE
:100682001196FBCFFD0108950E940A01A3E0B0E09C
:100692000C947F03A0E30E94E50088EC90E00197B0
:1006A200F1F708952A93AD85BE85EF85F8890995FE
:1006B2000895E889F9893497E88BF98B0895AD8517
:1006C200BE85EF85F88909950895A889B989149698
:1006D2000E949603EE83FF83AE81BF810895A889AD
:1006E200B98914960E949603EA87FB870895DE0172
:1006F2001C960E9489030E9496030895109639F071
:1007020080ED97E00197F1F7A8951197C9F7089541
:100712000024AF0DB01D0895F195E195F0400895C4
:100722006F2F660F660B762F0895ED91FC9111974E
:1007320008950590F491E02D08957A936A93FA93BF
:10074200EA9308955A934A933A932A931A930A93EF
:1007520008955D814C813B812A8119810881089528
:00000001FF
