:100000000C9455000C9400000C9400000C9400001B
:100010000C9400000C9400000C9400000C94000060
:100020000C9400000C9400000C9400000C94000050
:100030000C9400000C9400000C9400000C94000040
:100040000C9485000C9400000C9400000C940000AB
:100050000C9400000C9400000C9400000C94000020
:100060000C9400000C9400000C9400000C94000010
:100070000C9400000C9400000C9400000C94000000
:100080000C9400000C9400000C94000000006865C3
:100090006C6C6F2D776F726C640080C0020008007A
:1000A0008C00020000059A000000F894EE27ECBBDB
:1000B000F1E0F5BFE5BFE0936C008DE0A2E0BB2767
:1000C000ED938A95E9F780E090E1A0E0B1E0ED934F
:1000D0000197E9F7ECE9F0E085919591009761F0DF
:1000E000A591B59105901590BF01F00105900D9275
:1000F0000197E1F7FB01F0CF8BBFEFEFEDBFE0E140
:10010000EEBFC0E0D5E00C94BE000A921A92FA92BB
:100110006A937A938A939A93AA93BA93EA93FA93F7
:10012000EFB7EA93ECE9E2BFE5E0F0E0E815F905A6
:1001300084F0F30131963F018A92F3D0E0E5F0E0DC
:100140006E167F0634F0662477248DD0F401319644
:100150004F01E5E0F0E0E815F90514F4882499244E
:10016000E991EFBFF991E991B991A991999189919B
:1001700079916991F990199009901895E0E2E1BBA5
:10018000E0E0E2BBE7BBECE1E8BBE0E0E0BFE2E0DF
:10019000E3BFECE9E2BFE0E0E1BFE1E0E7BFE0E0C0
:1001A000E0937D00A0E191D0E0E0EA93BAD07894AA
:1001B000B29902C0BBD0959AB39902C0B7D09598B6
:1001C000B49911C0B3D044245524E2E0F0E04E16B7
:1001D0005F0644F4959AAAD09598A8D0F20131967A
:1001E0002F01F3CF959AE4CFFFCFAA93E881E07176
:1001F00011F0DB9A01C0DB98E881E07211F0DC9A23
:1002000001C0DC98E881E07411F0DD9A01C0DD984E
:10021000E881E07811F0DE9A01C0DE988DE08A95E1
:10022000F1F7DA9A8DE08A95F1F7DA988DE08A9500
:10023000F1F775C0AA93A881D8DFE881E295E88339
:10024000A881D3DF85E88A95F1F769C0AA93E88190
:10025000F0E0E050FB4FE081A981AE0FEBDFB98009
:10026000A88022960895A2E065D0ACE0E3DFA1E08B
:1002700061D0E0E0AE2EBE2E0895AA93A881AA30E8
:1002800011F0BD1448F0E0E0EA93A394AA2DDEDF5C
:10029000A881AA3009F443C0B394D89AA881CADFD0
:1002A000D8983DC0BA93AA931A93E981FA813196FE
:1002B000E983FA833197E4911E2FE03019F0A12FE2
:1002C000DCDFF3CF188123960895AA93D39AD49AAA
:1002D000D59AD69AD29AD09AD19ADA98D898D998AB
:1002E000D880E881E058E0930205E881E054E0938B
:1002F0000305A4E1B0E00E94A60121D020D01FD0C8
:10030000A0E273DF88EC90E00197F1F7A8E292DFBA
:10031000A4E090DFA5E88EDFA6E08CDFA4DF2196C5
:100320000895A0E093DFAEE8B0E0BCCFA8E2B0E073
:100330000C94A6017FDFA3E0B0E00C94A601A0E33B
:1003400054DF88EC90E00197F1F70895109639F0AA
:1003500080ED97E00197F1F7A8951197C9F70895F7
:00000001FF
