:020000000C945E
:1000020046000C9400000C9400000C9400000C9428
:1000120000000C9400000C9400000C9400000C945E
:1000220000000C9400000C9400000C9400000C944E
:1000320000000C9400000C9400000C9400000C943E
:1000420000000C9400000C9400000C9400000C942E
:1000520000000C9400000C9400000C9400000C941E
:1000620000000C9400000C9400000C9400000C940E
:1000720000000C9400000C9400000C9400000C94FE
:1000820000000C9400000C940000F894EE27ECBBE6
:10009200F1E0F5BFE5BFE0936C008DE0A2E0BB2785
:1000A200ED938A95E9F780E090E1A0E0B1E0ED936D
:1000B2000197E9F78BBFEFEFEDBFE0E1EEBFC0E0E4
:1000C200D5E00C94BE00BA93AA93E881F9813097E7
:1000D20039F4E0E8E0936200E9EFE2BBEFE7EBBB63
:1000E200A881B981119711F4E6E860D0A881B9819D
:1000F200129721F4E4E861D0EFEFEBBBA881B9815C
:10010200139711F4E4E85ED0A881B981149739F409
:10011200E2E8E0936200E7EFE2BBEFE7EBBBA88126
:10012200B981159711F4E0EA4DD0A881B9811697EB
:1001320021F4E1EA42D0EFE7EBBBA881B98117973E
:1001420011F4E4E833D0A881B981189721F4E0E8EA
:1001520034D0EFE7EBBBA881B981199711F4E0E83D
:1001620031D0AAEFB0E00E94EA00E6EAE093620032
:10017200EFEFE2BBEBBB2296089500E010E0E0E077
:10018200E7BBEFEFE0936100E1BBEABBE4E0E8BB71
:10019200B29902C00F5F1F4FD801EAE0F0E00E945F
:1001A2000B018F01D8018FDFF3CFFFCFE093620005
:1001B200EFEFE2BBEFE7EBBB0895E0936200E1EF04
:1001C200E2BB0895E0936200E5EFE2BBEFE7EBBB31
:1001D2000895109639F080ED97E00197F1F7A89510
:1001E2001197C9F70895F195E195F040089500241B
:1001F200112490E1AA0FBB1F001C111C0E1A1F0A2A
:1002020018F40E0E1F1E01C0A1609A9599F7FD0108
:10021200D0010895E894B7FF04C0A095B095119657
:100222006894F7FDE0DFE3DFFD010EF4DCDF089503
:00000001FF
