:0C0000000C947C000C9400000C94000098
:10000C000C9400000C9400000C9400000C94000064
:10001C000C9400000C9400000C9400000C94000054
:10002C000C9400000C9400000C9400000C94000044
:10003C000C9400000C94AC000C9400000C94000088
:10004C000C9400000C9400000C9400000C94000024
:10005C000C9400000C9400000C9400000C94000014
:10006C000C9400000C9400000C9400000C94000004
:10007C000C9400000C9400000C9400000C940000F4
:10008C0000004C043F393B3B3D1F1D3B3F3F6F691C
:10009C006B6B6D4F4D6B6F6FF7F1F3F3F5D7D5F3CA
:1000AC00F7F77E787A7A7C5E5C7A7E7E06000E0AA2
:1000BC00080A0E000E0A808000808080808080807C
:1000CC00040004008C000A00000590000A000A05D8
:1000DC009A000A001405A4000A001E05AE000A00CE
:1000EC002805B8000A003205C2000000F894EE277B
:1000FC00ECBBF1E0F5BFE5BFE0936C008DE0A2E056
:10010C00BB27ED938A95E9F780E090E1A0E0B1E0A0
:10011C00ED930197E9F7ECECF0E085919591009760
:10012C0061F0A591B59105901590BF01F001059076
:10013C000D920197E1F7FB01F0CF8BBFEFEFEDBF15
:10014C00E0E1EEBFC0E0D5E00C944101EA93FA93F4
:10015C00EFB7EA93E6E0E2BFF20131962F01E991A5
:10016C00EFBFF991E9911895BA93AA9326970E943B
:10017C00B0010C851D85D801E8EEF3E00E948F01DB
:10018C009F01A2D00E948F01AF019ED00E949401CA
:10019C00DF01EAE0F0E00E948F01EA87FB8794D050
:1001AC000E949401DF01EAE0F0E00E949401E887EC
:1001BC00F987E0E0EE83EF83AE81BF8113970CF0FB
:1001CC0056C0AEE1B5E0A20FB31FEC91E093620014
:1001DC00A8E2B5E0A20FB31FEC91E2BBA2E3B5E03D
:1001EC00A20FB31FEC9179D0A4E1B5E0A40FB51F19
:1001FC00EC91E0936200A8E2B5E0A40FB51FEC917E
:10020C00E2BBA2E3B5E0A40FB51FEC9166D0EA8582
:10021C00FB85E65FFA4FE081E0936200EA85FB859F
:10022C00E85DFA4FE081E2BBEA85FB85EE5CFA4FB4
:10023C00E08153D0E885F985E050FB4FE081E093F5
:10024C006200E885F985E85DFA4FE081E2BBE8855C
:10025C00F985EE5CFA4FE081EBBB88EC90E00197FE
:10026C00F1F7EE81FF813196EE83FF83A5CF0E94DB
:10027C00B7012E960895EFEFE0936100E1BBEABB66
:10028C00E0E0E0BFE3E0E3BFE6E0E2BFE0E0E1BFD7
:10029C00E1E0E7BFE0E0E0937D007894D30164DF18
:1002AC00E4E6F0E04E165F062CF0EFE0F7E26E1697
:1002BC007F060CF007C0F30131963F01D30154DFE8
:1002CC0044245524EBCFFFCFD801E8EEF3E00E9495
:1002DC009401DF01E4E6F0E00895EBBB8BE18A9535
:1002EC00F1F70895F195E195F0400895002411245B
:1002FC0090E1AA0FBB1F001C111C0E1A1F0A18F448
:10030C000E0E1F1E01C0A1609A9599F7FD01D00138
:10031C00089512D0EBDF0EF4E5DF0895E894B7FFF3
:10032C0004C0A095B09511966894F7FDDBDFDEDF75
:10033C00FD010EF4D7DF0895E894F7FF02C0D2DF79
:10034C006894B7FF06C0A095B095119600F8039479
:10035C0000FA08955A934A933A932A931A930A935C
:10036C0008955D814C813B812A8119810881089512
:00000001FF
