:100000000C946B000C9400000C9400000C94000005
:100010000C9400000C9400000C9400000C94000060
:100020000C9400000C9400000C9400000C94000050
:100030000C9400000C9400000C9400000C94000040
:100040000C9400000C9400000C9400000C94000030
:100050000C9400000C9400000C9400000C94000020
:100060000C9400000C9400000C9400000C94000010
:100070000C9400000C9400000C9400000C94000000
:100080000C9400000C9400000C9400001027E8036E
:1000900064000A00010000100001100001000100CE
:1000A0000200030004000500060007000800090024
:1000B0002575000001002D4E414E00494E460000BE
:1000C00080C0110000059E0001002205B40002005E
:1000D0002605C0000000F894EE27ECBBF1E0F5BF68
:1000E000E5BFE0936C008DE0A2E0BB27ED938A951D
:1000F000E9F780E090E1A0E0B1E0ED930197E9F746
:10010000E2ECF0E085919591009761F0A591B591B1
:1001100005901590BF01F00105900D920197E1F750
:10012000FB01F0CF8BBFEFEFEDBFE0E1EEBFC0E032
:10013000D5E00C94F0000E94EA0340E050E0433028
:10014000E0E05E070CF048C0042E052A19F4EDEF3C
:10015000E0936200E1E0F0E0E417F50719F4E7EF5F
:10016000E0936200E2E0F0E0E417F50719F4EFED48
:10017000E093620020E030E02330E0E03E074CF501
:10018000022E032A49F4E0B1E4701E2F143021F04E
:10019000E0E0EA930E946203E1E0F0E0E217F30797
:1001A00041F4E0B1E0711E2F103119F02A930E9442
:1001B0006203E2E0F0E0E217F30741F4E0B1E1703E
:1001C0001E2F113019F02A930E9462032F5F3F4FB8
:1001D000D3CF4F5F5F4FB3CF0E94F10326960895B0
:1001E000EFEFE1BBE6EBE2BBA0E10E941A03EAEE0F
:1001F000E0936100E5E1E09362009DDF0E94E80288
:10020000FCCFFFCFBA93AA931A930A93AA81BB811A
:1002100012960E94DD03309759F1AA81BB81149692
:100220000E94DD038F01309761F00230E0E01E078D
:1002300098F0F80131978F01AA81BB811496ED9354
:10024000FC93AA81BB811296ED91FD913196FE93AC
:10025000EE933197AC81A083AA81BB810E94DD031C
:10026000FF232AF0ED91FD913196FE93EE9306C0A7
:10027000AA81BB81EFEFFFEFED93FC931981088119
:1002800025960895BA93AA9326970E94EA0310E050
:10029000AC85BD85E0E0F0E0ED93FC93EA89FB8955
:1002A0003196EA8BFB8B3197E4912E2FE03009F4E5
:1002B00015C1E12FE03039F4253211F411E002C00C
:1002C0000E948C030AC1E130A9F4253219F40E947E
:1002D0008C0302C112E040E000E02D3211F401E095
:1002E000FCC02B3211F44BE2F8C0203211F440E292
:1002F000F4C002C0E23039F450E013E0203311F4CE
:100300000068EBC003C0E33009F0E7C0203310F011
:100310002A3308F007C0AAE05A9F502DE22FE0537D
:100320005E0FDBC0E22FE33649F40E949303E889B5
:10033000F989A481AA930E949903CEC0E33741F4BE
:100340000E9493030E949F030E9449031E2F0AC02C
:10035000E03761F40E9493030E949F030E945503BB
:100360001E2F086002600F7730E034C0E43611F0D1
:10037000E93611F4046002C0E53731F4ECE8F0E04E
:10038000EE83FF8315E00CC0E83511F4086003C06C
:10039000E83709F0A1C0E6E9F0E0EE83FF8314E05E
:1003A00002FF14C00E9493030E94A903AB85AA23F5
:1003B0003AF4EA85FB850E94D403EA87FB874DE285
:1003C000403011F01F5F01C00B7F04C00E949303F7
:1003D0000E94A90300FD11C0151778F407FF08C09B
:1003E00002FF04C00B7F242F115001C020E301C085
:1003F00020E20E948C035150EFCF312F01FF17C034
:100400003030A1F003FF06C0EE81FF812591EE831D
:10041000FF8305C0AE81BF812D91AE83BF830E9453
:100420008C03503009F051503150EACF4BC020E3DB
:10043000EE81FF810E94E103E887F987EE81FF8169
:100440003296EE83FF83E885F985AA85BB85AE17D2
:10045000BF0750F02F5FA885B985EA85FB85EA1BA9
:10046000FB0BEA87FB87EFCF2A3328F003FF02C09C
:10047000295F01C0295D04FD1AC0213320F4A8853D
:10048000B985119709F409C0531710F000FF01C096
:1004900013C020E207FF0BC020E3006102FF07C08A
:1004A0000B7F4A930E949903503009F051500E94EB
:1004B0008C03503009F051503150A885B9851297FE
:1004C00008F0B5CF00FF08C0503031F05150E0E2E5
:1004D000EA930E949903F8CF10E0E0CEAC85BD8589
:1004E0000E94DD030E94F10364960895FF92F82EA6
:1004F00026970E94EC030E94B103309719F4EFEFA6
:10050000FFEF23C0DE0116960E94D0038D010E94EA
:10051000B103EE83FF83E0E0E887E987DE011A9606
:100520000E94D0030E94DD03FA93EA931A930A9380
:10053000E2E0F1E0FA93EA93DE011A96A3DE9F016E
:10054000AE81BF81E0E0EC93F9010E94F3032A96AB
:10055000FF900895AA93E881E07111F0DB9A01C041
:10056000DB98E881E07211F0DC9A01C0DC98E88148
:10057000E07411F0DD9A01C0DD98E881E07811F0B7
:10058000DE9A01C0DE988DE08A95F1F7DA9A8DE067
:100590008A95F1F7DA988DE08A95F1F778C0AA93F9
:1005A000A881D8DFE881E295E883A881D3DF85E8D8
:1005B0008A95F1F76CC0AA93E881F0E0EA5DFA4F02
:1005C000E081A981AE0FEBDF598048802296089523
:1005D000A2E00E94B803ACE0E2DFA1E00E94B80311
:1005E000E0E04E2E5E2E0895AA93A881AA3011F065
:1005F000571448F0E0E0EA934394A42DDCDFA8818F
:10060000AA3009F444C05394D89AA881C8DFD89876
:100610003EC0BA93AA931A93A981BA81ED91A98396
:10062000BA831E2FE03019F0A12FDEDFF5CF18813D
:1006300023960895AA93D39AD49AD59AD69AD29A01
:10064000D09AD19ADA98D898D9987880E881E058E9
:10065000E0932805E881E054E0932905A4E1B0E0A7
:100660000E94C6030E94BE030E94BE030E94BE03F6
:10067000A0E270DF88EC90E00197F1F7A8E28FDF4D
:10068000A4E08DDFA5E88BDFA6E089DFA1DF21965E
:100690000895BA93AA93A991B991EE27FF276D9176
:1006A000662311F03196FBCF0895BA93AA93AA2737
:1006B000BB27E991F9910590002011F01196FBCF2D
:1006C000FD010895A0E00E94DB02E2E1F5E0FA936B
:1006D000EA93E0EBF0E0FA93EA93A6E0A29FF00140
:1006E000A39FF00DE050FB4FDF01FA01EE0FFF1F5B
:1006F000AE0FBF1F0E94DD030E94D8030E94E503D6
:1007000084E00E9476022896A2E1B5E00E940903E7
:10071000A4EFB1E00C94C6032A93AD85BE85EF85A6
:10072000F88909950895E889F9893497E88BF98B58
:100730000895AD85BE85EF85F88909950895A88946
:10074000B98914960E94DD03EE83FF83AE81BF81D9
:100750000895A889B98914960E94DD03EA87FB876A
:100760000895DE011C960E94D0030E94DD030895C7
:100770000E94CF02A3E0B0E00C94C603A0E30E9465
:10078000AA0288EC90E00197F1F70895109639F0ED
:1007900080ED97E00197F1F7A8951197C9F70895B3
:1007A0000024AF0DB01D0895F195E195F040089536
:1007B0006F2F660F660B762F0895ED91FC911197C0
:1007C00008950590F491E02D08957A936A93FA9331
:1007D000EA9308955A934A933A932A931A930A9361
:1007E00008955D814C813B812A811981088108959A
:00000001FF
