:0A0000000C9457000C9400000C94BF
:10000A0000000C9400000C9400000C9400000C9466
:10001A0000000C9400000C9400000C9400000C9456
:10002A0000000C9400000C9400000C9400000C9446
:10003A0000000C9400000C9487000C9400000C94AF
:10004A0000000C9400000C9400000C9400000C9426
:10005A0000000C9400000C9400000C9400000C9416
:10006A0000000C9400000C9400000C9400000C9406
:10007A0000000C9400000C9400000C9400000C94F6
:10008A00000000000000000068656C6C6F2D776F3F
:10009A00726C640080C0060004008C000200000537
:1000AA009E000000F894EE27ECBBF1E0F5BFE5BF37
:1000BA00E0936C008DE0A2E0BB27ED938A95E9F707
:1000CA0080E090E1A0E0B1E0ED930197E9F7E0EA82
:1000DA00F0E085919591009761F0A591B591059011
:1000EA001590BF01F00105900D920197E1F7FB0110
:1000FA00F0CF8BBFEFEFEDBFE0E1EEBFC0E0D5E0A0
:10010A000C94C0000A921A92FA926A937A938A938A
:10011A009A93AA93BA93EA93FA93EFB7EA93ECE91C
:10012A00E2BFE5E0F0E0E815F90584F0F301319665
:10013A003F018A9202D1E4E6F0E06E167F0634F0BF
:10014A00662477249CD0F40131964F01E5E0F0E073
:10015A00E815F90514F488249924E991EFBFF99177
:10016A00E991B991A9919991899179916991F990B6
:10017A00199009901895E0E0E7BBE4E0E8BBE0E7F6
:10018A00E1BBE0E0E0BFE2E0E3BFECE9E2BFE0E0D0
:10019A00E1BFE1E0E7BFE0E0E0937D00A0E1A1D0AC
:1001AA00E0E0EA93CAD07894B29907C0A8E2B0E036
:1001BA000E94B301F20131962F01E1E0F0E0E4156B
:1001CA00F50521F4949A9598969811C0E2E0F0E02A
:1001DA00E415F50521F49498959A969808C0E3E0F9
:1001EA00F0E0E415F50519F494989598969AE3E0E9
:1001FA00F0E0E415F5051CF4E1E0F0E02F01D4CFBE
:10020A00FFCFAA93E881E07111F0DB9A01C0DB9875
:10021A00E881E07211F0DC9A01C0DC98E881E074B0
:10022A0011F0DD9A01C0DD98E881E07811F0DE9ADC
:10023A0001C0DE988DE08A95F1F7DA9A8DE08A9509
:10024A00F1F7DA988DE08A95F1F775C0AA93A8813B
:10025A00D8DFE881E295E883A881D3DF85E88A952B
:10026A00F1F769C0AA93E881F0E0E050FB4FE08122
:10027A00A981AE0FEBDFB980A88022960895A2E08B
:10028A0061D0ACE0E3DFA1E05DD0E0E0AE2EBE2EAF
:10029A000895AA93A881AA3011F0BD1448F0E0E0AD
:1002AA00EA93A394AA2DDEDFA881AA3009F443C0F9
:1002BA00B394D89AA881CADFD8983DC0BA93AA93B2
:1002CA001A93E981FA813196E983FA833197E491A5
:1002DA001E2FE03019F0A12FDCDFF3CF188123960F
:1002EA000895AA93D39AD49AD59AD69AD29AD09A9A
:1002FA00D19ADA98D898D998D880E881E058E093CA
:10030A000205E881E054E0930305A4E1B0E00E940D
:10031A00B3011DD01CD01BD0A0E273DF88EC90E0A3
:10032A000197F1F7A8E292DFA4E090DFA5E88EDF5B
:10033A00A6E08CDFA4DF21960895A0E093DFA2E96E
:10034A00B0E0BCCF83DFA3E0B0E00C94B301A0E33C
:10035A0058DF88EC90E00197F1F70895109639F08C
:10036A0080ED97E00197F1F7A8951197C9F70895DD
:00000001FF
