:0A0000000C9460000C9400000C94B6
:10000A0000000C9400000C9400000C9400000C9466
:10001A0000000C9400000C9400000C9400000C9456
:10002A0000000C9400000C9400000C9400000C9446
:10003A0000000C9400000C9490000C9400000C94A6
:10004A0000000C9400000C9400000C9400000C9426
:10005A0000000C9400000C9400000C9400000C9416
:10006A0000000C9400000C9400000C9400000C9406
:10007A0000000C9400000C9400000C9400000C94F6
:10008A00000052433A0054726F69206E616E670035
:10009A0054726F69206D7561000080C001002D4E99
:1000AA00414E00494E46000002001005A40001001E
:1000BA001405A6000000F894EE27ECBBF1E0F5BFAA
:1000CA00E5BFE0936C008DE0A2E0BB27ED938A9533
:1000DA00E9F780E090E1A0E0B1E0ED930197E9F75C
:1000EA00E2EBF0E085919591009761F0A591B591C9
:1000FA0005901590BF01F00105900D920197E1F767
:10010A00FB01F0CF8BBFEFEFEDBFE0E1EEBFC0E048
:10011A00D5E00C94C100EA93FA93EFB7EA93E0EBC7
:10012A00E2BFF20131962F01E0EDF7E0E415F505A3
:10013A0011F4442455244614570414F4AF9A01C008
:10014A00AF98E991EFBFF991E991189589D07A9220
:10015A006A92A0E0B5E00E94A701E0E0EA93A0E07D
:10016A0072D0ACE8B0E0ACD0E3E0EA93A0E06BD0A8
:10017A00A0E0B5E096D00895EFEFE4BBE0E0E7BB7E
:10018A00EFEFE8BBE0E0E0BFE1E0E3BFE0EBE2BFB6
:10019A00E0E0E1BFE1E0E7BFE0E0E0937D007894D2
:1001AA00EDE7F0E03F01A0E19ED0D0DFB2990BC0AD
:1001BA00A8ECB0E00E94EB01E6EAF0E00E94D5016B
:1001CA00A0E9B0E07DD0B3990BC0A8ECB0E00E94E2
:1001DA00EB01E4E5F0E00E94D501AAE9B0E070D0B5
:1001EA00E5CFFFCFAA93E881E07111F0DB9A01C055
:1001FA00DB98E881E07211F0DC9A01C0DC98E881B2
:10020A00E07411F0DD9A01C0DD98E881E07811F020
:10021A00DE9A01C0DE988DE08A95F1F7DA9A8DE0D0
:10022A008A95F1F7DA988DE08A95F1F789C0AA9351
:10023A00A881D8DFE881E295E883A881D3DF85E841
:10024A008A95F1F77DC0AA93E881F0E0E05FFA4F62
:10025A00E081A981AE0FEBDF99808880229608950C
:10026A00A2E00E94DD01ACE0E2DFA1E00E94DD0134
:10027A00E0E08E2E9E2E0895AA93A881AA3011F04E
:10028A009B1448F0E0E0EA938394A82DDCDFA88170
:10029A00AA3009F455C09394D89AA881C8DFD8988F
:1002AA004FC0BA93AA931A93A981BA81ED91A983EF
:1002BA00BA831E2FE03019F0A12FDEDFF5CF10C070
:1002CA00BA93AA931A93E981FA813196E983FA8358
:1002DA003197E4911E2FE03019F0A12FCDDFF3CF33
:1002EA00188123960895AA93D39AD49AD59AD69A1E
:1002FA00D29AD09AD19ADA98D898D998B880E881BF
:10030A00E058E0931205E881E054E0931305A4E174
:10031A00B0E00E94EB010E94E3010E94E3010E9407
:10032A00E301A0E25FDF88EC90E00197F1F7A8E231
:10033A007EDFA4E07CDFA5E87ADFA6E078DF90DF45
:10034A0021960895BA93AA93A991B991E991F9913D
:10035A0030962AF4E095F09531966DE26D93E89423
:10036A0080E197E20DD088EE93E00AD084E69927DF
:10037A0007D08AE005D06E2F10D066276C930895B7
:10038A006627E817F90720F06395E81BF90BC9F708
:10039A00662311F416F008956894605D6D930895CC
:1003AA003F010E94AB00E0E0EA93A1E00C9428012F
:1003BA000E941C01A3E0B0E00C94EB01A0E30E94B0
:1003CA00F70088EC90E00197F1F70895109639F05C
:1003DA0080ED97E00197F1F7A8951197C9F708956D
:00000001FF
