:040000000C94460016
:100004000C9400000C9400000C9400000C9400006C
:100014000C9400000C9400000C9400000C9400005C
:100024000C9400000C9400000C9400000C9400004C
:100034000C9400000C9400000C9400000C9400003C
:100044000C9400000C9400000C9400000C9400002C
:100054000C9400000C9400000C9400000C9400001C
:100064000C9400000C9400000C9400000C9400000C
:100074000C9400000C9400000C9400000C940000FC
:100084000C9400000C940000F894EE27ECBBF1E013
:10009400F5BFE5BFE0936C008DE0A2E0BB27ED93D4
:1000A4008A95E9F780E090E1A0E0B1E0ED93019753
:1000B400E9F78BBFEFEFEDBFE0E1EEBFC0E0D5E0C5
:1000C4000C94D1001A930A9300E010E00A30E0E0A7
:1000D4001E070CF061C0002E012A39F4E7EAE09310
:1000E4006200E6E0E2BBE0E8EBBBE1E0F0E0E01751
:1000F400F10711F4E1EA5FD0E2E0F0E0E017F10784
:1001040021F4E3EA5FD0E0E0EBBBE3E0F0E0E017EA
:10011400F10711F4E3EA5BD0E4E0F0E0E017F10763
:1001240039F4E5EAE0936200E8E0E2BBE0E8EBBB27
:10013400E5E0F0E0E017F10711F4E7E848D0E6E085
:10014400F0E0E017F10721F4E7E83CD0E0E8EBBB8E
:10015400E7E0F0E0E017F10711F4E3EA2CD0E8E07F
:10016400F0E0E017F10721F4E7EA2CD0E0E8EBBB7C
:10017400E9E0F0E0E017F10711F4E7EA28D0AAEF8C
:10018400B0E00E94F000E6EAE0936200EFEFE2BB29
:10019400EBBB0F5F1F4F9ACF099119910895E0E0CF
:1001A400E7BBEFEFE0936100E1BBEABBE4E0E8BB4F
:1001B40089DFFECFFFCFE0936200E0E0E2BBE0E83E
:1001C400EBBB0895E0936200EFE0E2BB0895E09397
:1001D4006200EAE0E2BBE0E8EBBB0895109639F078
:1001E40080ED97E00197F1F7A8951197C9F7089565
:00000001FF
