:040000000C94460016
:100004000C9400000C9400000C9400000C9400006C
:100014000C9400000C9400000C9400000C9400005C
:100024000C9400000C9400000C9400000C9400004C
:100034000C9400000C9400000C9400000C9400003C
:100044000C9400000C9400000C9400000C9400002C
:100054000C9400000C9400000C9400000C9400001C
:100064000C9400000C9400000C9400000C9400000C
:100074000C9400000C9400000C9400000C940000FC
:100084000C9400000C940000F894EE27ECBBF1E013
:10009400F5BFE5BFE0936C008DE0A2E0BB27ED93D4
:1000A4008A95E9F780E090E1A0E0B1E0ED93019753
:1000B400E9F78BBFEFEFEDBFE0E1EEBFC0E0D5E0C5
:1000C4000C94D1001A930A9300E010E00A30E0E0A7
:1000D4001E070CF061C0002E012A39F4E1E8E09318
:1000E4006200E9EFE2BBEFE7EBBBE1E0F0E0E01731
:1000F400F10711F4E7E85FD0E2E0F0E0E017F10780
:1001040021F4E5E85FD0EFEFEBBBE3E0F0E0E017CC
:10011400F10711F4E5E85BD0E4E0F0E0E017F10763
:1001240039F4E3E8E0936200E7EFE2BBEFE7EBBB0F
:10013400E5E0F0E0E017F10711F4E1EA48D0E6E089
:10014400F0E0E017F10721F4E1EA3CD0EFE7EBBB84
:10015400E7E0F0E0E017F10711F4E5E82CD0E8E07F
:10016400F0E0E017F10721F4E1E82CD0EFE7EBBB76
:10017400E9E0F0E0E017F10711F4E1E828D0A4EF9A
:10018400B1E00E94F000E6EAE0936200EFEFE2BB28
:10019400EBBB0F5F1F4F9ACF099119910895E0E0CF
:1001A400E7BBEFEFE0936100E1BBEABBE4E0E8BB4F
:1001B40089DFFECFFFCFE0936200EFEFE2BBEFE712
:1001C400EBBB0895E0936200E1EFE2BB0895E09396
:1001D4006200E5EFE2BBEFE7EBBB0895109639F060
:1001E40080ED97E00197F1F7A8951197C9F7089565
:00000001FF
