:0A0000000C9461000C9400000C94B5
:10000A0000000C9400000C9400000C9400000C9466
:10001A0000000C9400000C9400000C9400000C9456
:10002A0000000C9400000C9400000C9400000C9446
:10003A0000000C9400000C9400000C9400000C9436
:10004A0000000C9400000C9400000C9400000C9426
:10005A0000000C9400000C9400000C9400000C9416
:10006A0000000C9400000C9400000C9400000C9406
:10007A0000000C9400000C9400000C9400000C94F6
:10008A0000001027E80364000A00010000100001C4
:10009A0010000100736F206E67756F693A2025643E
:1000AA0000736F206E67756F693A2564000080C01F
:1000BA0002000A05B8000000F894EE27ECBBF1E054
:1000CA00F5BFE5BFE0936C008DE0A2E0BB27ED939E
:1000DA008A95E9F780E090E1A0E0B1E0ED9301971D
:1000EA00E9F7EAEBF0E085919591009761F0A59127
:1000FA00B59105901590BF01F00105900D920197F9
:10010A00E1F7FB01F0CF8BBFEFEFEDBFE0E1EEBF10
:10011A00C0E0D5E00C949100E0E0E7BBECE0E8BB7E
:10012A00E0E1E1BBE0E0E2BBEFEFE4BBE0E0E5BB2E
:10013A00A0E1B4D00E944303EEE9F0E00E94480334
:10014A00B29915C0B399FECFAAEFB0E00E9493030B
:10015A00F20131972F0100244014500414F444246E
:10016A0055240E944303EBEAF0E00E944803B39946
:10017A000FC0B299FECFAAEFB0E00E949303F2013A
:10018A0031962F010E944303EBEAF0E00E944803F4
:10019A000024041405046CF4949AE8E0E5BBE5E055
:1001AA00F0E0E415F50514F4ECE001C0E8E0E5BB85
:1001BA0003C09498E0E0E5BBC3CFFFCFAA93E881E0
:1001CA00E07111F0DB9A01C0DB98E881E07211F06E
:1001DA00DC9A01C0DC98E881E07411F0DD9A01C074
:1001EA00DD98E881E07811F0DE9A01C0DE988DE0B2
:1001FA008A95F1F7DA9A8DE08A95F1F7DA988DE027
:10020A008A95F1F778C0AA93A881D8DFE881E295A8
:10021A00E883A881D3DF85E88A95F1F76CC0AA93B1
:10022A00E881F0E0E65FFA4FE081A981AE0FEBDFEB
:10023A007980688022960895A2E00E945903ACE072
:10024A00E2DFA1E00E945903E0E06E2E7E2E0895BF
:10025A00AA93A881AA3011F0791448F0E0E0EA9351
:10026A006394A62DDCDFA881AA3009F444C07394F4
:10027A00D89AA881C8DFD8983EC0BA93AA931A938D
:10028A00A981BA81ED91A983BA831E2FE03019F0B2
:10029A00A12FDEDFF5CF188123960895AA93D39A6A
:1002AA00D49AD59AD69AD29AD09AD19ADA98D898D4
:1002BA00D9989880E881E058E0930C05E881E054E9
:1002CA00E0930D05A4E1B0E00E9493030E945F034E
:1002DA000E945F030E945F03A0E270DF88EC90E057
:1002EA000197F1F7A8E28FDFA4E08DDFA5E88BDFA5
:1002FA00A6E089DFA1DF21960895BA93AA931A93FB
:10030A000A93AA81BB8112960E94AA03309759F1D7
:10031A00AA81BB8114960E94AA038F01309761F0CB
:10032A000230E0E01E0798F0F80131978F01AA81A8
:10033A00BB811496ED93FC93AA81BB811296ED9131
:10034A00FD913196FE93EE933197AC81A083AA81F9
:10035A00BB810E94AA03FF232AF0ED91FD913196F9
:10036A00FE93EE9306C0AA81BB81EFEFFFEFED93F8
:10037A00FC931981088125960895BA93AA93269722
:10038A000E94B70310E0AC85BD85E0E0F0E0ED9394
:10039A00FC93EA89FB893196EA8BFB8B3197E491CE
:1003AA002E2FE03009F415C1E12FE03039F425325F
:1003BA0011F411E002C00E9467030AC1E130A9F4F6
:1003CA00253219F40E94670302C112E040E000E0FE
:1003DA002D3211F401E0FCC02B3211F44BE2F8C0CB
:1003EA00203211F440E2F4C002C0E23039F450E0A5
:1003FA0013E0203311F40068EBC003C0E33009F0C6
:10040A00E7C0203310F02A3308F007C0AAE05A9F49
:10041A00502DE22FE0535E0FDBC0E22FE33649F4A2
:10042A000E946E03E889F989A481AA930E94740341
:10043A00CEC0E33741F40E946E030E947A030E9401
:10044A002A031E2F0AC0E03761F40E946E030E943D
:10045A007A030E9436031E2F086002600F7730E08D
:10046A0034C0E43611F0E93611F4046002C0E5370D
:10047A0031F4ECE8F0E0EE83FF8315E00CC0E835D8
:10048A0011F4086003C0E83709F0A1C0E6E9F0E01A
:10049A00EE83FF8314E002FF14C00E946E030E94E1
:1004AA008403AB85AA233AF4EA85FB850E94A1035B
:1004BA00EA87FB874DE2403011F01F5F01C00B7FD6
:1004CA0004C00E946E030E94840300FD11C0151728
:1004DA0078F407FF08C002FF04C00B7F242F1150D5
:1004EA0001C020E301C020E20E9467035150EFCF10
:1004FA00312F01FF17C03030A1F003FF06C0EE8193
:10050A00FF812591EE83FF8305C0AE81BF812D91C6
:10051A00AE83BF830E946703503009F051503150B7
:10052A00EACF4BC020E3EE81FF810E94AE03E88749
:10053A00F987EE81FF813296EE83FF83E885F9859C
:10054A00AA85BB85AE17BF0750F02F5FA885B9856E
:10055A00EA85FB85EA1BFB0BEA87FB87EFCF2A3389
:10056A0028F003FF02C0295F01C0295D04FD1AC0FB
:10057A00213320F4A885B985119709F409C05317C6
:10058A0010F000FF01C013C020E207FF0BC020E3F8
:10059A00006102FF07C00B7F4A930E947403503028
:1005AA0009F051500E946703503009F05150315000
:1005BA00A885B985129708F0B5CF00FF08C050305A
:1005CA0031F05150E0E2EA930E947403F8CF10E050
:1005DA00E0CEAC85BD850E94AA030E94BE03649644
:1005EA000895FF92F82E26970E94B9030E948C0361
:1005FA00309719F4EFEFFFEF23C0DE0116960E9441
:10060A009D038D010E948C03EE83FF83E0E0E8875F
:10061A00E987DE011A960E949D030E94AA03FA93B3
:10062A00EA931A930A93E2E8F1E0FA93EA93DE0175
:10063A001A96A3DE9F01AE81BF81E0E0EC93F90137
:10064A000E94C0032A96FF900895BA93AA93A9918B
:10065A00B991EE27FF276D91662311F03196FBCFF2
:10066A000895BA93AA93AA27BB27E991F99105900D
:10067A00002011F01196FBCFFD010895E0E0F5E0AE
:10068A00FA93EA930895FA93EA93F2010E94A50372
:10069A000E94B20384E00E94F60228960E94210179
:1006AA00A0E0B5E00C9442010E940801A3E0B0E08A
:1006BA000C949303A0E30E94E30088EC90E0019776
:1006CA00F1F708952A93AD85BE85EF85F8890995D6
:1006DA000895E889F9893497E88BF98B0895AD85EF
:1006EA00BE85EF85F88909950895A889B989149670
:1006FA000E94AA03EE83FF83AE81BF810895A88971
:10070A00B98914960E94AA03EA87FB870895DE0135
:10071A001C960E949D030E94AA030895109639F020
:10072A0080ED97E00197F1F7A8951197C9F7089519
:10073A000024AF0DB01D0895F195E195F04008959C
:10074A006F2F660F660B762F0895ED91FC91119726
:10075A0008950590F491E02D08957A936A93FA9397
:10076A00EA9308955A934A933A932A931A930A93C7
:10077A0008955D814C813B812A8119810881089500
:00000001FF
