:0E0000000C946C000C9400000C9400000C9406
:10000E0000000C9400000C9400000C9400000C9462
:10001E0000000C9400000C9400000C9400000C9452
:10002E0000000C9400000C9400000C9400000C9442
:10003E0000000C949C000C9400000C9400000C9496
:10004E0000000C9400000C9400000C9400000C9422
:10005E0000000C9400000C9400000C9400000C9412
:10006E0000000C9400000C9400000C9400000C9402
:10007E0000000C9400000C9400000C94000010275B
:10008E00E80364000A0001000010000110000100E6
:10009E000100C0792430191202780010C0F9A4B002
:1000AE00999282F88090253032643A253032643A43
:1000BE00253032643A253032640080C002000400DC
:1000CE009E0002001B05C8000000F894EE27ECBB52
:1000DE00F1E0F5BFE5BFE0936C008DE0A2E0BB2739
:1000EE00ED938A95E9F780E090E1A0E0B1E0ED9321
:1000FE000197E9F7EAECF0E085919591009761F0B0
:10010E00A591B59105901590BF01F00105900D9246
:10011E000197E1F7FB01F0CF8BBFEFEFEDBFE0E111
:10012E00EEBFC0E0D5E00C94B8010A921A92FA9292
:10013E006A937A938A939A93AA93BA93EA93FA93C9
:10014E00EFB7EA93E6E0E2BFF40131964F01F60114
:10015E0031966F01989903C00E94DF0509F0C3C064
:10016E00AA24BB24A0E0B5E00E94E5050E94EB05A1
:10017E000CF4AFC0D601E8ECF0E00E9421073097F6
:10018E0009F0A5C0F201309751F4E0911A050E94D2
:10019E00F305E0931A05ECE3F0E04F0198C0E1306F
:1001AE00A0E0FA0739F4E09119050E94F305E093F7
:1001BE0019058DC0E230A0E0FA0761F4E091180550
:1001CE00F0E03196DF01E8E1F0E00E942107E093D4
:1001DE0018057DC0E330A0E0FA0709F053C0A091E6
:1001EE001505A13061F0A33051F0A53041F0A730D4
:1001FE0031F0A83021F0AA3011F0AC3059F40E9441
:10020E00FB05EFE1F0E00E94010619F4EFE1E09347
:10021E0014055DC0A0911505A43031F0A63021F073
:10022E00A93011F0AB3059F40E94FB05EEE1F0E07D
:10023E000E94010619F4EEE1E093140548C0A09166
:10024E001505A230F1F4A0911605A43121F0A831C4
:10025E0011F0AC3159F40E94FB05EDE1F0E00E9483
:10026E00010619F4EDE1E093140531C00E94FB057F
:10027E00ECE1F0E00E94010619F4ECE1E0931405C4
:10028E0026C004C0E430A0E0FA0789F4E091150519
:10029E00F0E03196DF01ECE0F0E00E942107E09300
:1002AE001505E03019F4ECE0E093150510C0E530CB
:1002BE00A0E0FA0761F4E0911605F0E07397DF0114
:1002CE00EBE0F0E00E942107EC5EE09316053201B0
:1002DE000AC00E94EB053CF4D2011196E6E0F0E074
:1002EE000E9421073F01989B03C00E94DF0509F081
:1002FE002AC0E0E0E0930005E0930105F501319698
:10030E005F012301E8EBFBE0AE16BF06E4F0E0E090
:10031E00E0931205E0931305E0911705EA93E0913F
:10032E001405EA93E0911505EA93A09116050E9433
:10033E00ED04E0911805EA93E0911905EA93A09176
:10034E001A050E94C504E991EFBFF991E991B9919F
:10035E00A9919991899179916991F9901990099042
:10036E001895669784E1A2E0B0E0E0EAF0E00E9422
:10037E005807E0E0E0931205E0931305A0E10E9418
:10038E007F05EFEFE7BBE1BB0E949906E3E0EA933E
:10039E00E1E0EA93A0E00E949304E0E0E4BB989AC7
:1003AE00E0BFE3E0E3BFE6E0E2BFE0E0E1BFE1E0B3
:1003BE00E7BFE0E0E0937D0078940E94DF05E1F076
:1003CE00E7E1F5E0FA93EA93E4E1F5E0FA93EA93D4
:1003DE00E5E1F5E0FA93EA93A6E1B5E00E94D204D6
:1003EE00E8E1F5E0FA93EA93E9E1F5E0FA93EA93AE
:1003FE00AAE1B5E00E94AC04A0911905B0E0EAE0D4
:10040E00F0E00E941C078F01609119057727F80113
:10041E000E9407069D01A0911A05B0E0EAE0F0E007
:10042E000E941C07AF0160911A057727FA010E94FE
:10043E000706A883B983989906C0A0911205B091BA
:10044E001305109709F013C08824992498990FC0AA
:10045E00E0E2F3E0E815F90549F488249924E1E097
:10046E00F0E0E0931205F093130501C0EFCFE1E049
:10047E00E2BBDE011C96A00FB11F0E940F0631F4E5
:10048E000E94DF0519F40E94160609F004C0EFEF72
:10049E00E8BBA2E001C0AAE0B0E00E94EA06E2E0FA
:1004AE00E2BBDE011296A20FB31F0E940F0631F4BB
:1004BE000E94DF0519F40E94160609F004C0EFEF42
:1004CE00E8BBA2E001C0AAE0B0E00E94EA06E4E0C8
:1004DE00E2BBDE011C96A40FB51FEC91E8BB002415
:1004EE000414050431F40E94DF0519F40E94160667
:1004FE0009F004C0EFEFE8BBA2E001C0AAE0B0E053
:10050E000E94EA06E8E0E2BBE881F981DE011C9672
:10051E00AE0FBF1FEC91E8BB00240414050431F4A8
:10052E000E94DF0519F40E94160609F004C0EFEFD1
:10053E00E8BBA2E001C0AAE0B0E00E94EA06E0E05B
:10054E00EA93A0E00E942F05E2E0F5E0FA93EA9329
:10055E00E4EBF0E0FA93EA93E09118050E941D0691
:10056E00E09114050E941D06E09115050E941D06DE
:10057E00E09116050E941D0680E10E945F046496BC
:10058E00A2E0B5E00E946E05AAE0B0E00E94EA0685
:10059E000E94DF0529F4E1E0F0E0E415F5050CF02A
:1005AE0017C0D401E5E0F0E00E942107309781F4F6
:1005BE00E42DE250A3E0EA020A920E942306E42D03
:1005CE00E250A3E0EA02F001EF5FEA930E942306F5
:1005DE00F4CEFFCFBA93AA931A930A93AA81BB8142
:1005EE0012960E943D07309729F1AA81BB8114967D
:1005FE000E943D078F01309761F00230E0E01E0748
:10060E0080F0F80131978F01AA81BB811496ED938A
:10061E00FC93AA81BB8112960E94E5053197AC81AD
:10062E00A083AA81BB810E943D07FF2312F00E9486
:10063E00E50506C0AA81BB81EFEFFFEFED93FC93BA
:10064E001981088125960895BA93AA9326970E9438
:10065E004A0710E0AC85BD85E0E0F0E0ED93FC9339
:10066E00EA89FB893196EA8BFB8B3197E4912E2F29
:10067E00E03009F415C1E12FE03039F4253211F4E0
:10068E0011E002C00E9429060AC1E130A9F4253208
:10069E0019F40E94290602C112E040E000E02D325A
:1006AE0011F401E0FCC02B3211F44BE2F8C0203201
:1006BE0011F440E2F4C002C0E23039F450E013E02D
:1006CE00203311F40068EBC003C0E33009F0E7C03B
:1006DE00203310F02A3308F007C0AAE05A9F502D9D
:1006EE00E22FE0535E0FDBC0E22FE33649F40E94A7
:1006FE003006E889F989A481AA930E943606CEC0F5
:10070E00E33741F40E9430060E943C060E94AF057A
:10071E001E2F0AC0E03761F40E9430060E943C068C
:10072E000E94BB051E2F086002600F7730E034C0B8
:10073E00E43611F0E93611F4046002C0E53731F405
:10074E00ECE8F0E0EE83FF8315E00CC0E83511F421
:10075E00086003C0E83709F0A1C0E6E9F0E0EE83D7
:10076E00FF8314E002FF14C00E9430060E9446066A
:10077E00AB85AA233AF4EA85FB850E94F806EA8740
:10078E00FB874DE2403011F01F5F01C00B7F04C0AC
:10079E000E9430060E94460600FD11C0151778F41F
:1007AE0007FF08C002FF04C00B7F242F115001C0A9
:1007BE0020E301C020E20E9429065150EFCF312FD5
:1007CE0001FF17C03030A1F003FF06C0EE81FF819C
:1007DE002591EE83FF8305C0AE81BF812D91AE833F
:1007EE00BF830E942906503009F051503150EACF94
:1007FE004BC020E3EE81FF810E944107E887F98715
:10080E00EE81FF813296EE83FF83E885F985AA8516
:10081E00BB85AE17BF0750F02F5FA885B985EA8557
:10082E00FB85EA1BFB0BEA87FB87EFCF2A3328F009
:10083E0003FF02C0295F01C0295D04FD1AC02133E8
:10084E0020F4A885B985119709F409C0531710F043
:10085E0000FF01C013C020E207FF0BC020E30061C0
:10086E0002FF07C00B7F4A930E943606503009F0F4
:10087E0051500E942906503009F051503150A88530
:10088E00B985129708F0B5CF00FF08C0503031F08F
:10089E005150E0E2EA930E943606F8CF10E0E0CE27
:1008AE00AC85BD850E943D070E9451076496089550
:1008BE00FF92F82E26970E944C070E944E06309704
:1008CE0019F4EFEFFFEF23C0DE0116960E94F40637
:1008DE008D010E944E06EE83FF83E0E0E887E987F4
:1008EE00DE011A960E94F4060E943D07FA93EA93DF
:1008FE001A930A93E1EFF2E0FA93EA93DE011A9665
:10090E00A3DE9F01AE81BF81E0E0EC93F9010E946E
:10091E0053072A96FF900895AA93EA81E370EA831B
:10092E00E981E03019F0EA81E061EA83E881E030A4
:10093E0019F0EA81E068EA830E945506A7E00E945A
:10094E00D206AA810E945A06D1C0BA93AA930E94D7
:10095E005506A0E00E945A060E945E060E94660698
:10096E000E946D060E947306AE2F0E94C805AC81D0
:10097E00BD81EC930E94AD0626960895AA930E941F
:10098E005506A0E00E9479060E947F060E94850609
:10099E000E945A06ABC0BA93AA930E945506A3E0D2
:1009AE000E945A060E945E06AE81BF81EC930E94A1
:1009BE006D06AC81BD81EC930E946D060E9473069C
:1009CE000E9466060E94AD0628960895AA930E947C
:1009DE005506A3E00E94D206AB810E9485060E94B6
:1009EE007F060E9479060E945A0624960895AA93BD
:1009FE00E881E07111F01B9A01C01B98E881E0724A
:100A0E0011F01C9A01C01C98E881E07411F01D9A37
:100A1E0001C01D98E881E07811F01E9A01C01E9861
:100A2E008DE08A95F1F71A9A8DE08A95F1F71A986A
:100A3E008DE08A95F1F78AC0AA93A881D8DFE88164
:100A4E00E295E883A881D3DF85E88A95F1F77EC029
:100A5E00AA93E881F0E0E55EFA4FE081A981AE0F3E
:100A6E00EBDFE981E0931F05E881E09320052296F4
:100A7E000895A2E00E948B06ACE0DEDFA1E00E94AA
:100A8E008B06E0E0E0932005E0931F050895AA93FE
:100A9E00A881AA3031F0E0912105A0911F05AE1773
:100AAE0060F0E0E0EA93A0912005AF5FA0932005EF
:100ABE00CFDFA881AA3009F449C0E0911F05EF5F8E
:100ACE00E0931F05189AA881B7DF18983FC0BA9314
:100ADE00AA931A93A981BA81ED91A983BA831E2F85
:100AEE00E03019F0A12FD3DFF5CF188123960895AA
:100AFE00AA93139A149A159A169A129A109A119AF0
:100B0E001A9818981998E881E0932105E058E09317
:100B1E001D05E881E054E0931E05A4E1B0E00E94BB
:100B2E00EA060E9491060E9491060E949106A0E29A
:100B3E005EDF88EC90E00197F1F7A8E27DDFA4E09C
:100B4E007BDFA5E879DFA6E077DF93DF21960895B6
:100B5E00BA93AA93A991B991EE27FF276D916623B7
:100B6E0011F03196FBCF0895BA93AA93AA27BB270B
:100B7E00E991F9910590002011F01196FBCFFD013E
:100B8E000895AA93E881E295EF70AE2FAA0FAA0FEF
:100B9E00EA0FEE0FA991AF70EA0F0895AA93A991EB
:100BAE00EE27AA5012F0E05FFCCFA65FEA0F089581
:100BBE00A0911205B091130511970895ED91FD9135
:100BCE003196FE93EE930895A0910005B091010524
:100BDE00A835E2E0BE070895F0E03196DF01ECE3C0
:100BEE00F0E00E9421070895E0911405F0E031969F
:100BFE00DF0108950E942107E0931405E030089567
:100C0E00AAE0B0E00E940407DB01AE1BBF0B089503
:100C1E00EC91E8BBE1E0F0E0E415F5050895D401B0
:100C2E00E2E0F0E00E94210730970895FF27662743
:100C3E0077270E9445070895A0E00E942F05A0E2A5
:100C4E000C944E052A93AD85BE85EF85F8890995DE
:100C5E000895E889F9893497E88BF98B0895AD8565
:100C6E00BE85EF85F88909950895A889B9891496E6
:100C7E000E943D07EE83FF83AE81BF810895A88950
:100C8E00B98914960E943D07EA87FB870895DE0115
:100C9E001C960E94F4060E943D0708950E949E062F
:100CAE00A0ED0C94D2060E94D2060C94AD060E94C2
:100CBE009E06A1ED0E94D206A1E00C94B706AE2FBF
:100CCE000E94C805A881B981EC930895A1E00E9405
:100CDE00B706AE2F0C94C805AA81BB81EC93A0E099
:100CEE000C94B7060E94D206A88158DFAE2F089545
:100CFE000E94D206A98152DFAE2F08950E94D2061D
:100D0E00AA814CDFAE2F08950E942305A3E0B0E028
:100D1E000C94EA06A0E30E94FE0488EC90E0019792
:100D2E00F1F70895D898D998D09AD19815C0D1983E
:100D3E00D098EE270000C99B0895C89B089504D053
:100D4E00D19A02D0D09AE1E06DE007C0D19AD09A44
:100D5E0003D0D098F9DFD1986BE16A95F1F7089539
:100D6E0078E0D098F1DFC89BFECFEEDF8894C9996A
:100D7E000894D09AF1DFEE1F7A9599F77A2F7723A0
:100D8E0011F4D19801C0D19ADFDFD098E5DFD09A67
:100D9E00DBDFD198D9CF78E0AA0F10F4D19801C03B
:100DAE00D19ADADFD098D0DFC89BFECFCDDFD09AB4
:100DBE007A9591F7D198C8DFD098CEDFE1E0C99946
:100DCE00EE27D09AC1CF109639F080ED97E00197BB
:100DDE00F1F7A8951197C9F708950024AF0DB01D2E
:100DEE000895F195E195F0400895FA9FF02DEB9F4F
:100DFE00F00DEA9FE02DF10D08952AD0F6DF0EF4E6
:100E0E00F0DF08950024112490E1AA0FBB1F001CEF
:100E1E00111C0E1A1F0A18F40E0E1F1E01C0A1601F
:100E2E009A9599F7FD01D001089512D0EBDF0EF4DB
:100E3E00D8DF0895E894B7FF04C0A095B095119639
:100E4E006894F7FDCEDFDEDFFD010EF4CADF0895F4
:100E5E00E894F7FF02C0C5DF6894B7FF06C0A095FF
:100E6E00B095119600F8039400FA0895ED91FC9157
:100E7E00119708950590F491E02D08957A936A9351
:100E8E00FA93EA9308955A934A933A932A931A93AC
:100E9E000A9308955D814C813B812A8119810881D5
:100EAE000895AC0FBD1F05900D928A95E1F7089538
:00000001FF
