:020000000C945E
:1000020060000C9400000C9400000C9400000C940E
:1000120000000C9400000C9400000C9400000C945E
:1000220000000C9400000C9400000C9400000C944E
:1000320000000C9400000C9400000C9400000C943E
:10004200D9010C9400000C9400000C9400000C9454
:1000520000000C9400000C9400000C9400000C941E
:1000620000000C9400000C9400000C9400000C940E
:1000720000000C9400000C9400000C9400000C94FE
:1000820000000C9400000C9400001027E8036400A8
:100092000A00010000100001100001005800510088
:1000A2004900190025643A25643A2564000080C09D
:1000B200070000059E0002003605B0000000F8941B
:1000C200EE27ECBBF1E0F5BFE5BFE0936C008DE0FD
:1000D200A2E0BB27ED938A95E9F780E090E1A0E0EA
:1000E200B1E0ED930197E9F7E2EBF0E085919591AC
:1000F200009761F0A591B59105901590BF01F001AF
:1001020005900D920197E1F7FB01F0CF8BBFEFEF66
:10011200EDBFE0E1EEBFC0E0D5E00C94FD03BA9381
:10012200AA93A881B981E0E9F1E00E9453083097CF
:1001320061F0E881E37041F4A881B981E4E6F0E07E
:100142000E945308309709F403C0E1E00C940705BC
:10015200E0E00C940705BA93AA93EA81FB81E130AF
:10016200A0E0FA0719F4EFE1F0E057C0E230A0E0B6
:10017200FA0759F4A881B981D2DFE03019F0EDE134
:10018200F0E002C0ECE1F0E048C0E330A0E0FA07A2
:1001920019F4EFE1F0E041C0E430A0E0FA0719F40D
:1001A200EEE1F0E03AC0E530A0E0FA0719F4EFE141
:1001B200F0E033C0E630A0E0FA0719F4EEE1F0E037
:1001C2002CC0E730A0E0FA0719F4EFE1F0E025C017
:1001D200E830A0E0FA0719F4EFE1F0E01EC0E930E0
:1001E200A0E0FA0719F4EEE1F0E017C0EA30A0E06F
:1001F200FA0719F4EFE1F0E010C0EB30A0E0FA07E3
:1002020019F4EEE1F0E009C0EC30A0E0FA0719F4CD
:10021200EFE1F0E002C0E0E0F0E024960895E6E1CC
:10022200F5E00E943307F4010E943A07F2010E94AE
:100232003A07F3010E943A078CE00E94E6066096B4
:10024200E6E2F5E00E943307F5010E943A07F60163
:100252000E943A07E0910805F09109050E943A07C9
:100262008CE00E94E60660960E940905E0E0EA93AF
:10027200A0E00E94F804A6E1B5E00E943705E0E0A4
:10028200EA93A1E00E94F804A6E2B5E00E943705D5
:100292000895AA931A930A93EA81F0E0309719F02D
:1002A200E0E8F0E002C0E0E0F0E08F01ED81FE81E5
:1002B200309749F40E943F07EA5DE0936200E6E06E
:1002C200E2BBDF9A71C0AD81BE81119749F40E94F1
:1002D2003F07E05EE0936200E0E0E2BBDF9A64C0C9
:1002E200AD81BE81129739F40E943F07EE5DE09323
:1002F2006200EEE057C0AD81BE81139731F40E94D7
:100302003F07EE5D0E944B074FC0AD81BE8114973F
:1003120049F40E943F07EC5DE0936200E8E0E2BB33
:10032200DF9A42C0AD81BE81159731F40E943F072A
:10033200EA5F0E944B0738C0AD81BE81169749F42F
:100342000E943F07EA5FE0936200EEE0E2BBDF9AC1
:100352002BC0AD81BE81179749F40E943F07EE5D25
:10036200E0936200E0E0E2BBDF9A1EC0AD81BE8195
:10037200189749F40E943F07EA5DE0936200EEE0BD
:10038200E2BBDF9A11C0AD81BE81199731F40E94A0
:100392003F07EA5D0E944B0707C00E943F07E093B8
:1003A2006200E0E0E2BBDF98198108812796089598
:1003B2000A921A92FA926A937A938A939A93AA93D6
:1003C200BA93EA93FA93EFB7EA93E6E0E2BFA2E1C7
:1003D200B5E00E945107A4E1B5E00E945107A09147
:1003E2001005B0911105109720F0A0E1B5E00E9430
:1003F2005107A0911205B0911305A53FE1E0BE0798
:1004020030F0E0E0E0931205E093130508DFE0919D
:100412000A05F0910B053097C1F40E945707ACE032
:10042200B5E00E945107A0910C05B0910D05A93EBF
:10043200E3E0BE0748F0E0E0E0930C05E0930D0531
:10044200F30131963F0198D110C0AEE0B5E00E94B1
:100452005107A0910E05B0910F05A83BEBE0BE0736
:1004620020F00E9457070E945D07E0910A05F09173
:100472000B05309709F04BC02897D4010E946307FF
:10048200EE83FF83D4010E946807EC83FD83D201CF
:100492000E946307EA83FB83D2010E9468070E94DD
:1004A2006D0718F00E94750708F003C00E947B07D1
:1004B2002DC00E94750718F00E94860708F00CC034
:1004C200F301E17021F40E948C07A0E003C00E94B6
:1004D2008C07A1E0DEDE1AC00E94860718F00E9497
:1004E200950708F005C00E949B070E94A0070EC056
:1004F2000E94950718F00E94A70708F005C00E9405
:10050200AD070E94B20702C00E94B90726C10E942D
:10051200BF07119729F52497D4010E946307EA8344
:10052200FB83D4010E9468070E946D0718F00E94A5
:10053200860708F005C00E949B070E94C4070EC0F0
:100542000E94860718F00E94A70708F005C00E94C3
:10055200AD070E94CB0702C00E94B9072496FEC0D5
:100562000E94BF07129729F52497D2010E946307C0
:10057200EA83FB83D2010E9468070E946D0718F08C
:100582000E94860708F005C00E949B070E94A007F0
:100592000EC00E94860718F00E94A70708F005C047
:1005A2000E94AD070E94B20702C00E94B9072496BA
:1005B200D5C00E94BF07139729F52497D3010E9443
:1005C2006307EA83FB83D3010E9468070E946D07D9
:1005D20018F00E94860708F005C00E949B070E943F
:1005E200A0070EC00E94860718F00E94A70708F015
:1005F20005C00E94AD070E94B20702C00E94B9075F
:100602002496ACC00E94BF07149729F52497D50100
:100612000E946307EA83FB83D5010E9468070E9458
:100622006D0718F00E94860708F005C00E949B071C
:100632000E94C4070EC00E94860718F00E94A707F6
:1006420008F005C00E94AD070E94CB0702C00E94BD
:10065200B907249683C00E94BF07159729F52497EE
:10066200D6010E946307EA83FB83D6010E946807D2
:100672000E946D0718F00E94860708F005C00E94CC
:100682009B070E94A0070EC00E94860718F00E94D6
:10069200A70708F005C00E94AD070E94B20702C07A
:1006A2000E94B90724965AC00E94BF07169709F004
:1006B20055C028970E94D2070E944008EE83FF830C
:1006C2000E94D2070E945308DF01E4E6F0E00E9494
:1006D2004008EC83FD830E94D2070E945308DF0189
:1006E200E4E6F0E00E945308DF010E946307EA8318
:1006F200FB830E94D9070E9468070E946D0718F0C9
:100702000E94750708F003C00E947B0726C00E9462
:10071200750718F00E94860708F005C00E948C0732
:10072200A0E0B7DD1AC00E94860718F00E94950764
:1007320008F005C00E949B070E94A0070EC00E94FD
:10074200950718F00E94A70708F005C00E94AD07A0
:100752000E94B20702C00E94B9072896E991EFBF32
:10076200F991E991B991A9919991899179916991B7
:10077200F990199009901895ECE3F0E06E167F0657
:1007820028F066247724F20131962F01ECE3F0E0A1
:100792004E165F0628F044245524F40131964F0189
:1007A200E8E1F0E08E169F0628F088249924F501EE
:1007B20031965F010E94DE0738F4E1E0F0E05F016C
:1007C200F60131966F013197ECE0F0E0EC15FD0592
:1007D20020F4A8E0B5E00E9451070E94D907AF3E7D
:1007E200E7E0BE0730F40E94D907A43EE7E0BE0767
:1007F20010F40E94E6070895A0E149D1EEE0E1BBC2
:10080200D79AEFEFE0936100E0E0E7BBE4E0E8BBFA
:10081200442455246624772488249924E1E0F0E0D6
:100822005F016F01E6EEF7E0E0930805F09309053A
:100832000E945D07E0E0E0930C05E0930D050E9445
:1008420057070E94ED07E0E0E0931205E0931305DD
:100852000E94B907E0E0E0BFE3E0E3BFE6E0E2BF09
:10086200E0E0E1BFE1E0E7BFE0E0E0937D00789403
:10087200B2998AC0E0E0E0931005E09311050E946E
:100882005707B29903C00E945707FBCFA0911005EA
:10089200B0911105A43FE1E0BE0708F467C0E09102
:1008A2000A05F0910B05E130A0E0FA0759F4F401D2
:1008B20031964F01E8E1F0E08E169F0610F0882491
:1008C200992453C0E230A0E0FA0759F4F2013196BC
:1008D2002F01ECE3F0E04E165F0610F0442455249D
:1008E20044C0E330A0E0FA0759F4F30131963F0126
:1008F200ECE3F0E06E167F0610F06624772435C034
:10090200E430A0E0FA0751F4F50131965F010E944C
:10091200DE0718F4E1E0F0E05F0127C0E530A0E077
:10092200FA0769F4F60131966F013197ECE0F0E0D5
:10093200EC15FD0518F4E1E0F0E06F0116C0E630B9
:10094200A0E0FA0791F4A8E0B5E00E9451070E94E6
:10095200D907AF3EE7E0BE0730F40E94D907A43EB4
:10096200E7E0BE0710F40E94E6070CC0AAE0B5E07B
:100972000E9451070E94BF07179710F00E945D075F
:100982000E94B9070E94ED0773CFFFCFAA93E881B7
:10099200E07111F0DB9A01C0DB98E881E07211F09E
:1009A200DC9A01C0DC98E881E07411F0DD9A01C0A4
:1009B200DD98E881E07811F0DE9A01C0DE988DE0E2
:1009C2008A95F1F7DA9A8DE08A95F1F7DA988DE057
:1009D2008A95F1F78AC0AA93A881D8DFE881E295C7
:1009E200E883A881D3DF85E88A95F1F77EC0AA93D0
:1009F200E881F0E0EA5CFA4FE081A981AE0FEBDF1B
:100A0200E981E0933A05E881E0933B052296089557
:100A1200A2E00E94F407ACE0DEDFA1E00E94F4074E
:100A2200E0E0E0933B05E0933A050895AA93A8819C
:100A3200AA3031F0E0913C05A0913A05AE1760F082
:100A4200E0E0EA93A0913B05AF5FA0933B05CFDFC7
:100A5200A881AA3009F449C0E0913A05EF5FE0931A
:100A62003A05D89AA881B7DFD8983FC0BA93AA931B
:100A72001A93A981BA81ED91A983BA831E2FE0301E
:100A820019F0A12FD3DFF5CF188123960895AA93E9
:100A9200D39AD49AD59AD69AD29AD09AD19ADA98E7
:100AA200D898D998E881E0933C05E058E09338055E
:100AB200E881E054E0933905A4E1B0E00E942E08F9
:100AC2000E94FA070E94FA070E94FA07A0E25EDF7C
:100AD20088EC90E00197F1F7A8E27DDFA4E07BDFEC
:100AE200A5E879DFA6E077DF93DF21960895BA9330
:100AF200AA931A930A93AA81BB8112960E9456085E
:100B0200309729F1AA81BB8114960E9456088F0161
:100B1200309761F00230E0E01E0780F0F801319773
:100B22008F01AA81BB811496ED93FC93AA81BB81AC
:100B320012960E9451073197AC81A083AA81BB8192
:100B42000E945608FF2312F00E94510706C0AA8194
:100B5200BB81EFEFFFEFED93FC931981088125969E
:100B62000895BA93AA9326970E94630810E0AC8571
:100B7200BD85E0E0F0E0ED93FC93EA89FB893196D4
:100B8200EA8BFB8B3197E4912E2FE03009F415C1EB
:100B9200E12FE03039F4253211F411E002C00E9455
:100BA20002080AC1E130A9F4253219F40E940208B0
:100BB20002C112E040E000E02D3211F401E0FCC07D
:100BC2002B3211F44BE2F8C0203211F440E2F4C0AF
:100BD20002C0E23039F450E013E0203311F400682F
:100BE200EBC003C0E33009F0E7C0203310F02A3332
:100BF20008F007C0AAE05A9F502DE22FE0535E0F83
:100C0200DBC0E22FE33649F40E940908E889F9893A
:100C1200A481AA930E940F08CEC0E33741F40E9438
:100C220009080E9415080E941A071E2F0AC0E03701
:100C320061F40E9409080E9415080E9426071E2FCF
:100C4200086002600F7730E034C0E43611F0E93614
:100C520011F4046002C0E53731F4ECE8F0E0EE8311
:100C6200FF8315E00CC0E83511F4086003C0E837D3
:100C720009F0A1C0E6E9F0E0EE83FF8314E002FF91
:100C820014C00E9409080E941F08AB85AA233AF4E7
:100C9200EA85FB850E943C08EA87FB874DE24030EB
:100CA20011F01F5F01C00B7F04C00E9409080E945F
:100CB2001F0800FD11C0151778F407FF08C002FFD6
:100CC20004C00B7F242F115001C020E301C020E299
:100CD2000E9402085150EFCF312F01FF17C0303070
:100CE200A1F003FF06C0EE81FF812591EE83FF8311
:100CF20005C0AE81BF812D91AE83BF830E940208E1
:100D0200503009F051503150EACF4BC020E3EE8110
:100D1200FF810E945A08E887F987EE81FF813296A7
:100D2200EE83FF83E885F985AA85BB85AE17BF07E9
:100D320050F02F5FA885B985EA85FB85EA1BFB0B7E
:100D4200EA87FB87EFCF2A3328F003FF02C0295F2F
:100D520001C0295D04FD1AC0213320F4A885B9859C
:100D6200119709F409C0531710F000FF01C013C016
:100D720020E207FF0BC020E3006102FF07C00B7FE8
:100D82004A930E940F08503009F051500E94020805
:100D9200503009F051503150A885B985129708F0AA
:100DA200B5CF00FF08C0503031F05150E0E2EA9375
:100DB2000E940F08F8CF10E0E0CEAC85BD850E94FE
:100DC20056080E946A0864960895FF92F82E2697A4
:100DD2000E9465080E942708309719F4EFEFFFEF91
:100DE20023C0DE0116960E9438088D010E94270852
:100DF200EE83FF83E0E0E887E987DE011A960E942E
:100E020038080E945608FA93EA931A930A93E8E77D
:100E1200F5E0FA93EA93DE011A96A3DE9F01AE8112
:100E2200BF81E0E0EC93F9010E946C082A96FF90E2
:100E32000895BA93AA93A991B991EE27FF276D91CC
:100E4200662311F03196FBCF0895BA93AA93AA278D
:100E5200BB27E991F9910590002011F01196FBCF83
:100E6200FD010895FA93EA93E6EAF0E0FA93EA9331
:100E72000895662777270E945E080895EB81FC811A
:100E82003197A0E0B5E0EE0FFF1FAE0FBF1FEC9150
:100E9200E00F0895E0936200EAE0E2BBDF9A089572
:100EA200ED91FD913196FE93EE930895E0E0E0938B
:100EB2000E05E0930F050895E0E0E0930A05E09344
:100EC2000B050895EAE0F0E00E9440080895EAE088
:100ED200F0E00E9453080895E883F983A091140575
:100EE200B091150510970895A0911405B0911505BC
:100EF2001A970895EE81FF81FA93EA93E1E0F0E018
:100F0200FA93EA93A0E00C944A01A0911405B091DF
:100F1200150554970895EC81FD81FA93EA93E2E076
:100F2200F0E0FA93EA930895A0911405B0911505A3
:100F32005E970895EA81FB81FA93EA930895E3E0CC
:100F4200F0E0FA93EA93A0E00C944A01A091140510
:100F5200B091150598970895E881F981FA93EA937B
:100F62000895E4E0F0E0FA93EA93A0E00C944A01D9
:100F7200E0E0E0931405E09315050895A0910A05B9
:100F8200B0910B050895E1E0F0E0FA93EA93A0E056
:100F92000C944A01E2E0F0E0FA93EA93A0E00C94A8
:100FA2004A01A0910805B0910905E8EEF3E0089521
:100FB200A0910805B09109050895DA92CA92F8DF66
:100FC2000E94AC00EA15FB050895E4EEF7E0E09319
:100FD2000805F09309050895EFEFFFEFE093100580
:100FE200F093110508950E94EC04A3E0B0E00C9484
:100FF2002E08A0E30E94C70488EC90E00197F1F765
:1010020008952A93AD85BE85EF85F88909950895DF
:10101200E889F9893497E88BF98B0895AD85BE8507
:10102200EF85F88909950895A889B98914960E94CF
:101032005608EE83FF83AE81BF810895A889B989DE
:1010420014960E945608EA87FB870895DE011C96D3
:101052000E9438080E9456080895109639F080EDD3
:1010620097E00197F1F7A8951197C9F70895002421
:10107200AF0DB01D0895F195E195F040089500245B
:10108200112490E1AA0FBB1F001C111C0E1A1F0A8B
:1010920018F40E0E1F1E01C0A1609A9599F7FD016A
:1010A200D0010895ECDFFD010895ED91FC911197B7
:1010B20008950590F491E02D08957A936A93FA9336
:1010C200EA9308955A934A933A932A931A930A9366
:1010D20008955D814C813B812A811981088108959F
:00000001FF
