:040000000C947E00DE
:100004000C9400000C9400000C9400000C9400006C
:100014000C9400000C9400000C9400000C9400005C
:100024000C9400000C9400000C9400000C9400004C
:100034000C9400000C9400000C9400000C94020139
:100044000C9400000C9400000C9400000C9400002C
:100054000C9400000C9400000C9400000C9400001C
:100064000C9400000C9400000C9400000C9400000C
:100074000C9400000C9400000C9400000C940000FC
:100084000C9400000C9400001027E80364000A009C
:100094000100001000011000010000000000000039
:1000A4000100020003000400050006000700080028
:1000B400090038383838006E686170206C61692036
:1000C4006D6B000080C001002D4E414E00494E462C
:1000D4000000060004009E0011000105A4000400B5
:1000E4001D05B60001000005BA0002003205C80073
:1000F40001003605CA000000F894EE27ECBBF1E0DD
:10010400F5BFE5BFE0936C008DE0A2E0BB27ED9363
:100114008A95E9F780E090E1A0E0B1E0ED930197E2
:10012400E9F7E6EDF0E085919591009761F0A591EE
:10013400B59105901590BF01F00105900D920197BE
:10014400E1F7FB01F0CF8BBFEFEFEDBFE0E1EEBFD6
:10015400C0E0D5E00C942A010E94A40440E050E0E1
:100164004330E0E05E070CF047C0042E052A19F482
:10017400EDEFE0936200E1E0F0E0E417F50719F435
:10018400E7EFE0936200E2E0F0E0E417F50719F42A
:10019400EFEDE093620020E030E02330E0E03E0742
:1001A40044F5022E032A41F4E0E00299E1E01E2F17
:1001B400103011F40E941904E1E0F0E0E217F307B3
:1001C40041F4E0E00499E1E01E2F103011F40E94A4
:1001D4001904E2E0F0E0E217F30741F4E0E00099EB
:1001E400E1E01E2F103011F40E9419042F5F3F4FDD
:1001F400D4CF4F5F5F4FB4CF0E94AB0426960895CF
:100204001A92AA93EA93EFB7EA93E6E0E2BFE1E039
:10021400E715C1F46394E4E6E61569F4E0E0949923
:10022400E1E0A1E00E94A004EA1B11F4949801C04B
:10023400949A66249394E5E0E91521F466249924BC
:1002440094987724E991EFBFE991A99119901895B1
:10025400A0E1DAD0EFEFE4BBE0E0E5BBEAEEE09347
:100264006100E5E5E0936200E0E1E1BB9498E0E041
:10027400E0BFE3E0E3BFE6E0E2BFE0E0E1BFE1E0EE
:10028400E7BFE0E0E0937D00789466DF8BD00E94C6
:100294004104A0E0B5E00E94EC03E03059F0E52D04
:1002A400F0E03197ED5EFA4FAAE2A083A3E1B5E056
:1002B4009AD08824E4E0E51589F50E944104ADE173
:1002C400B5E00E94EC03E03019F46CD0AB9A17C08F
:1002D4004394E1E07E2EE3E0E41509F4AA9A62D0A7
:1002E400E2E2F5E0FA93EA93EBEBF0E0FA93EA93B7
:1002F40080E00E94A8032496A2E2B5E074D0A4EFA3
:10030400B1E00E948604E3E1F5E0FA93EA930E94E7
:1003140046040E9441040E9446045524AAEFB0E01A
:100324000E948604B2CFFFCFAA93E881E07111F056
:10033400DB9A01C0DB98E881E07211F0DC9A01C01D
:10034400DC98E881E07411F0DD9A01C0DD98E88161
:10035400E07811F0DE9A01C0DE988DE08A95F1F71D
:10036400DA9A8DE08A95F1F7DA988DE08A95F1F7BB
:1003740078C0AA93A881D8DFE881E295E883A881B0
:10038400D3DF85E88A95F1F76CC0AA93E881F0E0A1
:10039400EE5CFA4FE081A981AE0FEBDFB980A88053
:1003A40022960895A2E00E944C04ACE0E2DFA1E0B2
:1003B4000E944C04E0E0AE2EBE2E0895AA93A881BC
:1003C400AA3011F0BD1448F0E0E0EA93A394AA2DFA
:1003D400DCDFA881AA3009F444C0B394D89AA88178
:1003E400C8DFD8983EC0BA93AA931A93A981BA8158
:1003F400ED91A983BA831E2FE03019F0A12FDEDF1F
:10040400F5CF188123960895AA93D39AD49AD59AAE
:10041400D69AD29AD09AD19ADA98D898D998D8807C
:10042400E881E058E0933405E881E054E093350531
:10043400A4E1B0E00E9486040E9452040E94520487
:100444000E945204A0E270DF88EC90E00197F1F77B
:10045400A8E28FDFA4E08DDFA5E88BDFA6E089DFCB
:10046400A1DF21960895BA93AA931A930A93AA81B5
:10047400BB8112960E949804309759F1AA81BB81DE
:1004840014960E9498048F01309761F00230E0E0E6
:100494001E0798F0F80131978F01AA81BB81149649
:1004A400ED93FC93AA81BB811296ED91FD91319657
:1004B400FE93EE933197AC81A083AA81BB810E9405
:1004C4009804FF232AF0ED91FD913196FE93EE936B
:1004D40006C0AA81BB81EFEFFFEFED93FC93198176
:1004E400088176C1BA93AA9326970E94A40410E0C7
:1004F400AC85BD85E0E0F0E0ED93FC93EA89FB89EF
:100504003196EA8BFB8B3197E4912E2FE03009F47E
:1005140015C1E12FE03039F4253211F411E002C0A5
:100524000E945A040AC1E130A9F4253219F40E9448
:100534005A0402C112E040E000E02D3211F401E05F
:10054400FCC02B3211F44BE2F8C0203211F440E22B
:10055400F4C002C0E23039F450E013E0203311F467
:100564000068EBC003C0E33009F0E7C0203310F0AB
:100574002A3308F007C0AAE05A9F502DE22FE05317
:100584005E0FDBC0E22FE33649F40E946104E88980
:10059400F989A481AA930E946704CEC0E33741F489
:1005A4000E9461040E946D040E9400041E2F0AC070
:1005B400E03761F40E9461040E946D040E940C04FF
:1005C4001E2F086002600F7730E034C0E43611F06B
:1005D400E93611F4046002C0E53731F4ECE8F0E0E8
:1005E400EE83FF8315E00CC0E83511F4086003C006
:1005F400E83709F0A1C0E6E9F0E0EE83FF8314E0F8
:1006040002FF14C00E9461040E947704AB85AA23F0
:100614003AF4EA85FB850E949404EA87FB874DE25D
:10062400403011F01F5F01C00B7F04C00E946104C1
:100634000E94770400FD11C0151778F407FF08C065
:1006440002FF04C00B7F242F115001C020E301C01E
:1006540020E20E945A045150EFCF312F01FF17C0FE
:100664003030A1F003FF06C0EE81FF812591EE83B7
:10067400FF8305C0AE81BF812D91AE83BF830E94ED
:100684005A04503009F051503150EACF4BC020E3A6
:10069400EE81FF810E949C04E887F987EE81FF8147
:1006A4003296EE83FF83E885F985AA85BB85AE176C
:1006B400BF0750F02F5FA885B985EA85FB85EA1B43
:1006C400FB0BEA87FB87EFCF2A3328F003FF02C036
:1006D400295F01C0295D04FD1AC0213320F4A885D7
:1006E400B985119709F409C0531710F000FF01C030
:1006F40013C020E207FF0BC020E3006102FF07C024
:100704000B7F4A930E946704503009F051500E94B5
:100714005A04503009F051503150A885B9851297C8
:1007240008F0B5CF00FF08C0503031F05150E0E27E
:10073400EA930E946704F8CF10E0E0CEAC85BD8553
:100744000E9498040E94AB0464960895FF92F82EC8
:1007540026970E94A6040E947F04309719F4EFEFB5
:10076400FFEF23C0DE0116960E9490048D010E94C3
:100774007F04EE83FF83E0E0E887E987DE011A96D1
:100784000E9490040E949804FA93EA931A930A939D
:10079400E5E3F2E0FA93EA93DE011A96A3DE9F0101
:1007A400AE81BF81E0E0EC93F9010E94AD042A968A
:1007B400FF900895BA93AA93B981A881109631F055
:1007C400FC81EB816A8161931197E9F7EB81FC81EC
:1007D40025960895BA93AA93E991F991A991B991AB
:1007E4006D917191671721F46623D1F7EE2708956F
:1007F400671BE1F3E1E008F4E2500895BA93AA9389
:10080400A991B991EE27FF276D91662311F03196D6
:10081400FBCF0895BA93AA93AA27BB27E991F9912C
:100824000590002011F01196FBCFFD010895E1E041
:100834008E2E5A92A0E00E94C701E52DF0E0E85EFA
:10084400FA4FBF01A6E0A29FF001A39FF00DEF5F56
:10085400FA4FDF01FA01EE0FFF1FAE0FBF1FEC913D
:10086400E05DDB01EC93E52DF0E0E85EFA4FA0815A
:100874000E94E0015394A4EFB1E00C948604E8E1F3
:10088400F5E0FA93EA930895E0E0EA93A5E0B0E096
:100894000C94DC030E94BB01A3E0B0E00C9486043A
:1008A400A0E30E94960188EC90E00197F1F7089587
:1008B4002A93AD85BE85EF85F88909950895E88961
:1008C400F9893497E88BF98B0895AD85BE85EF855A
:1008D400F88909950895A889B98914960E949804FD
:1008E400EE83FF83AE81BF810895A889B9891496E8
:1008F4000E949804EA87FB870895DE011C960E94F3
:1009040090040E9498040895109639F080ED97E0C1
:100914000197F1F7A8951197C9F708950024AF0D31
:10092400B01D0895F195E195F0400895ED91FC9185
:10093400119708950590F491E02D08951A2EAE2F85
:10094400E12D08955A934A933A932A931A930A935A
:1009540008955D814C813B812A8119810881089524
:00000001FF
