:040000000C946200FA
:100004000C9400000C9400000C9400000C9400006C
:100014000C9400000C9400000C9400000C9400005C
:100024000C9400000C9400000C9400000C9400004C
:100034000C9400000C9400000C9400000C9400003C
:100044000C9400000C9400000C9400000C9400002C
:100054000C9400000C9400000C9400000C9400001C
:100064000C9400000C9400000C9400000C9400000C
:100074000C9400000C9400000C9400000C940000FC
:100084000C9400000C9400001027E80364000A009C
:100094000100001000011000010000000B00686561
:1000A4006C6C6F2D776F726C640080C00400040068
:1000B4009E000B000005A20002001805AE0000001F
:1000C400F894EE27ECBBF1E0F5BFE5BFE0936C00DC
:1000D4008DE0A2E0BB27ED938A95E9F780E090E1FB
:1000E400A0E0B1E0ED930197E9F7E0EBF0E0859152
:1000F4009591009761F0A591B59105901590BF0178
:10010400F00105900D920197E1F7FB01F0CF8BBF51
:10011400EFEFEDBFE0E1EEBFC0E0D5E00C94B1003D
:10012400AA931A9310E01A81E9811E17A8F4A12F4B
:10013400BB27EA81F0E00E94E501AB81BC81EA0FB4
:10014400FB1F0F01AD81BE81EE27A10FBE1FEC91F5
:10015400D001EC931F5FE8CF188127960895E0E063
:10016400E7BBEDE0E8BBA0E1EFD0A2E3B0E00E9482
:100174001102B09904C0442455247724B3D0B29911
:1001840003C0E1E00E94EA01B39903C0E2E00E94E7
:10019400EA01E1E0E715C1F5651439F30E94F901BC
:1001A4003196A42DB0E0EA17FB0789F44424E0E07B
:1001B400F5E0FA93EA93ECE0F5E0FA93EA93A62DDE
:1001C400A519A150AA93A62DABDF5394CECF8AD004
:1001D400E0E0E51538F4E0E1E5190E94FF01ACE048
:1001E400B5E0A1D0E42DE1500E94FF01A62DBB276C
:1001F400E52DF0E0AE1BBF0BE1E0F0E00E94E5016D
:10020400E050FB4FA0817AD0E2E0E71559F5651480
:1002140009F4ABCF0E94F9013196A42DB0E0EA179E
:10022400FB0769F44424A52DB0E0A45FBA4FE52D83
:10023400F0E0E050FB4FE081EC93539496CF52D022
:10024400E0E0E51528F40E94FF01ACE0B5E06BD0D6
:10025400E0E1E4190E94FF01E52DF0E0E050FB4FDE
:10026400A0814CD082CFFFCFAA93E881E07111F036
:10027400DB9A01C0DB98E881E07211F0DC9A01C0DE
:10028400DC98E881E07411F0DD9A01C0DD98E88122
:10029400E07811F0DE9A01C0DE988DE08A95F1F7DE
:1002A400DA9A8DE08A95F1F7DA988DE08A95F1F77C
:1002B40078C0AA93A881D8DFE881E295E883A88171
:1002C400D3DF85E88A95F1F76CC0AA93E881F0E062
:1002D400E85EFA4FE081A981AE0FEBDF9980888058
:1002E40022960895A2E00E940302ACE0E2DFA1E0BE
:1002F4000E940302E0E08E2E9E2E0895AA93A88108
:10030400AA3011F09B1448F0E0E0EA938394A82DFE
:10031400DCDFA881AA3009F444C09394D89AA88158
:10032400C8DFD8983EC0BA93AA931A93A981BA8118
:10033400ED91A983BA831E2FE03019F0A12FDEDFDF
:10034400F5CF188123960895AA93D39AD49AD59A6F
:10035400D69AD29AD09AD19ADA98D898D998B8805D
:10036400E881E058E0931A05E881E054E0931B0526
:10037400A4E1B0E00E9411020E9409020E94090255
:100384000E940902A0E270DF88EC90E00197F1F787
:10039400A8E28FDFA4E08DDFA5E88BDFA6E089DF8C
:1003A400A1DF21960895BA93AA93B981A8811096E2
:1003B40031F0FC81EB816A8161931197E9F7EB815C
:1003C400FC81259608950E941B02EA1BFB0B0895ED
:1003D4007E2E44245524ECE0F5E0FA93EA93E0E021
:1003E400EA93ACE0B0E00E94D5010C94740143940C
:1003F400E52DF0E0A0E1B0E0E6CFEA93A0E00C94B4
:1004040067010E945B01A3E0B0E00C941102A0E339
:100414000E94360188EC90E00197F1F70895109658
:1004240039F080ED97E00197F1F7A8951197C9F796
:1004340008951B2EBF2FF12D1A2EAE2FE12D0895F6
:00000001FF
