:040000000C946E00EE
:100004000C9400000C9400000C9400000C9400006C
:100014000C9400000C9400000C9400000C9400005C
:100024000C9400000C9400000C9400000C9400004C
:100034000C9400000C9400000C9400000C94CA0072
:100044000C9400000C9400000C9400000C9400002C
:100054000C9400000C9400000C9400000C9400001C
:100064000C9400000C9400000C9400000C9400000C
:100074000C9400000C9400000C9400000C940000FC
:100084000C9400000C9400001027E80364000A009C
:1000940001000010000110000100E501000056619C
:1000A4006C75653A202575005468726573686F6CC9
:1000B400643A2025750080C001002D4E414E004950
:1000C4004E460000040004009E0002000F05BA0022
:1000D40001001305BC000000F894EE27ECBBF1E02E
:1000E400F5BFE5BFE0936C008DE0A2E0BB27ED9384
:1000F4008A95E9F780E090E1A0E0B1E0ED93019703
:10010400E9F7E8ECF0E085919591009761F0A5910D
:10011400B59105901590BF01F00105900D920197DE
:10012400E1F7FB01F0CF8BBFEFEFEDBFE0E1EEBFF6
:10013400C0E0D5E00C94F900AA93E881E7B98BE11B
:100144008A95F1F7369A349BFECF349AE4B1F5B12F
:1001540004C1A4D0E0E0F5E0FA93EA93E2EAF0E027
:10016400FA93EA93A0E0E8DF0E947203A0E00E9401
:100174007D03E0E0F5E0FA93EA93ECEAF0E0FA9329
:10018400EA93F2010E947203A1E00E947D030895A4
:100194000A921A92FA926A937A938A939A93AA93F6
:1001A400BA93EA93FA93EFB7EA93E6E0E2BFF30176
:1001B40031963F01ED32A1E0FA0758F06624772426
:1001C400C8DFA0E0B9DFE415F50510F4AB9A01C06F
:1001D400AB98E991EFBFF991E991B991A9919991FE
:1001E400899179916991F990199009901895E0E0B5
:1001F400E0BFE3E0E3BFE6E0E2BFE0E0E1BFE1E06F
:10020400E7BFE0E0E0937D00E7B9E3E8E6B9E0E0CA
:10021400E0BDA39AAB98A0E173D07894FFCFFFCF51
:10022400AA93E881E07111F0DB9A01C0DB98E881C0
:10023400E07211F0DC9A01C0DC98E881E07411F0FE
:10024400DD9A01C0DD98E881E07811F0DE9A01C002
:10025400DE988DE08A95F1F7DA9A8DE08A95F1F7C8
:10026400DA988DE08A95F1F778C0AA93A881D8DF4F
:10027400E881E295E883A881D3DF85E88A95F1F7E0
:100284006CC0AA93E881F0E0E15FFA4FE081A981B4
:10029400AE0FEBDF9980888022960895A2E00E9439
:1002A4008303ACE0E2DFA1E00E948303E0E08E2E52
:1002B4009E2E0895AA93A881AA3011F09B1448F0A9
:1002C400E0E0EA938394A82DDCDFA881AA3009F446
:1002D40044C09394D89AA881C8DFD8983EC0BA93F2
:1002E400AA931A93A981BA81ED91A983BA831E2F87
:1002F400E03019F0A12FDEDFF5CF188123960895A1
:10030400AA93D39AD49AD59AD69AD29AD09AD19AB1
:10031400DA98D898D998B880E881E058E093110524
:10032400E881E054E0931205A4E1B0E00E94BD032B
:100334000E9489030E9489030E948903A0E270DF5E
:1003440088EC90E00197F1F7A8E28FDFA4E08DDF5D
:10035400A5E88BDFA6E089DFA1DF21960895BA9393
:10036400AA931A930A93AA81BB8112960E94CF037F
:10037400309759F1AA81BB8114960E94CF038F0153
:10038400309761F00230E0E01E0798F0F8013197F1
:100394008F01AA81BB811496ED93FC93AA81BB8142
:1003A4001296ED91FD913196FE93EE933197AC81C7
:1003B400A083AA81BB810E94CF03FF232AF0ED9181
:1003C400FD913196FE93EE9306C0AA81BB81EFEFB7
:1003D400FFEFED93FC931981088125960895BA9354
:1003E400AA9326970E94DC0310E0AC85BD85E0E06B
:1003F400F0E0ED93FC93EA89FB893196EA8BFB8B61
:100404003197E4912E2FE03009F415C1E12FE0304B
:1004140039F4253211F411E002C00E9491030AC19B
:10042400E130A9F4253219F40E94910302C112E0CB
:1004340040E000E02D3211F401E0FCC02B3211F455
:100444004BE2F8C0203211F440E2F4C002C0E230C2
:1004540039F450E013E0203311F40068EBC003C01A
:10046400E33009F0E7C0203310F02A3308F007C066
:10047400AAE05A9F502DE22FE0535E0FDBC0E22F1B
:10048400E33649F40E949803E889F989A481AA9380
:100494000E949E03CEC0E33741F40E9498030E9459
:1004A400A4030E9459031E2F0AC0E03761F40E947E
:1004B40098030E94A4030E9465031E2F0860026033
:1004C4000F7730E034C0E43611F0E93611F40460FB
:1004D40002C0E53731F4ECE8F0E0EE83FF8315E089
:1004E4000CC0E83511F4086003C0E83709F0A1C076
:1004F400E6E9F0E0EE83FF8314E002FF14C00E94FB
:1005040098030E94AE03AB85AA233AF4EA85FB85DF
:100514000E94CB03EA87FB874DE2403011F01F5F56
:1005240001C00B7F04C00E9498030E94AE0300FD2B
:1005340011C0151778F407FF08C002FF04C00B7F31
:10054400242F115001C020E301C020E20E94910336
:100554005150EFCF312F01FF17C03030A1F003FF0E
:1005640006C0EE81FF812591EE83FF8305C0AE8135
:10057400BF812D91AE83BF830E949103503009F057
:1005840051503150EACF4BC020E3EE81FF810E94ED
:10059400D303E887F987EE81FF813296EE83FF83E8
:1005A400E885F985AA85BB85AE17BF0750F02F5F94
:1005B400A885B985EA85FB85EA1BFB0BEA87FB87DF
:1005C400EFCF2A3328F003FF02C0295F01C0295D61
:1005D40004FD1AC0213320F4A885B985119709F4C4
:1005E40009C0531710F000FF01C013C020E207FF39
:1005F4000BC020E3006102FF07C00B7F4A930E94F7
:100604009E03503009F051500E949103503009F07C
:1006140051503150A885B985129708F0B5CF00FF25
:1006240008C0503031F05150E0E2EA930E949E033A
:10063400F8CF10E0E0CEAC85BD850E94CF030E94C8
:10064400E30364960895FF92F82E26970E94DE0332
:100654000E94B603309719F4EFEFFFEF23C0DE01D9
:1006640016960E94C7038D010E94B603EE83FF8392
:10067400E0E0E887E987DE011A960E94C7030E943A
:10068400CF03FA93EA931A930A93E1EBF1E0FA9316
:10069400EA93DE011A96A3DE9F01AE81BF81E0E0FA
:1006A400EC93F9010E94E5032A96FF900895BA930A
:1006B400AA93A991B991EE27FF276D91662311F0B2
:1006C4003196FBCF0895BA93AA93AA27BB27E99141
:1006D400F9910590002011F01196FBCFFD010895CA
:1006E400662777270E94D70384E00E942503289673
:1006F400E0E0EA9308950E944301A0E0B5E00C9481
:1007040071010E943701A3E0B0E00C94BD03A0E3A3
:100714000E94120188EC90E00197F1F708952A9362
:10072400AD85BE85EF85F88909950895E889F9892D
:100734003497E88BF98B0895AD85BE85EF85F889EC
:1007440009950895A889B98914960E94CF03EE8368
:10075400FF83AE81BF810895A889B98914960E9448
:10076400CF03EA87FB870895DE011C960E94C70326
:100774000E94CF030895109639F080ED97E0019719
:10078400F1F7A8951197C9F708950024AF0DB01D8E
:100794000895F195E195F0400895ED91FC9111973C
:1007A40008950590F491E02D08957A936A93FA934D
:1007B400EA9308955A934A933A932A931A930A937D
:1007C40008955D814C813B812A81198108810895B6
:00000001FF
